{
	"contracts/TaskList.sol": {
		"TaskList": {
			"abi": [
				{
					"inputs": [],
					"stateMutability": "nonpayable",
					"type": "constructor"
				},
				{
					"inputs": [
						{
							"internalType": "string",
							"name": "_text",
							"type": "string"
						},
						{
							"internalType": "enum TaskList.difficulty",
							"name": "_dif",
							"type": "uint8"
						}
					],
					"name": "addTask",
					"outputs": [
						{
							"internalType": "bool",
							"name": "success",
							"type": "bool"
						}
					],
					"stateMutability": "nonpayable",
					"type": "function"
				},
				{
					"inputs": [],
					"name": "getAllTaskTxt",
					"outputs": [
						{
							"internalType": "string[]",
							"name": "_textTasks",
							"type": "string[]"
						}
					],
					"stateMutability": "view",
					"type": "function"
				},
				{
					"inputs": [
						{
							"internalType": "uint8",
							"name": "_id",
							"type": "uint8"
						}
					],
					"name": "getTaskTextbyId",
					"outputs": [
						{
							"internalType": "string",
							"name": "_taskText",
							"type": "string"
						}
					],
					"stateMutability": "view",
					"type": "function"
				},
				{
					"inputs": [
						{
							"internalType": "uint8",
							"name": "_id",
							"type": "uint8"
						}
					],
					"name": "getTaskbyId",
					"outputs": [
						{
							"components": [
								{
									"internalType": "string",
									"name": "nameTask",
									"type": "string"
								},
								{
									"internalType": "enum TaskList.difficulty",
									"name": "level",
									"type": "uint8"
								},
								{
									"internalType": "uint8",
									"name": "id",
									"type": "uint8"
								}
							],
							"internalType": "struct TaskList.Task",
							"name": "_task",
							"type": "tuple"
						}
					],
					"stateMutability": "view",
					"type": "function"
				}
			],
			"devdoc": {
				"kind": "dev",
				"methods": {},
				"version": 1
			},
			"evm": {
				"assembly": "    /* \"contracts/TaskList.sol\":69:1024  contract TaskList {... */\n  mstore(0x40, 0x80)\n    /* \"contracts/TaskList.sol\":315:378  constructor() {... */\n  callvalue\n  dup1\n  iszero\n  tag_1\n  jumpi\n  0x00\n  dup1\n  revert\ntag_1:\n  pop\n    /* \"contracts/TaskList.sol\":346:356  msg.sender */\n  caller\n    /* \"contracts/TaskList.sol\":338:343  owner */\n  0x01\n  dup1\n    /* \"contracts/TaskList.sol\":338:356  owner = msg.sender */\n  0x0100\n  exp\n  dup2\n  sload\n  dup2\n  0xffffffffffffffffffffffffffffffffffffffff\n  mul\n  not\n  and\n  swap1\n  dup4\n  0xffffffffffffffffffffffffffffffffffffffff\n  and\n  mul\n  or\n  swap1\n  sstore\n  pop\n    /* \"contracts/TaskList.sol\":373:374  0 */\n  0x00\n    /* \"contracts/TaskList.sol\":363:370  numTask */\n  0x01\n  0x00\n    /* \"contracts/TaskList.sol\":363:374  numTask = 0 */\n  0x0100\n  exp\n  dup2\n  sload\n  dup2\n  0xff\n  mul\n  not\n  and\n  swap1\n  dup4\n  0xff\n  and\n  mul\n  or\n  swap1\n  sstore\n  pop\n    /* \"contracts/TaskList.sol\":69:1024  contract TaskList {... */\n  dataSize(sub_0)\n  dup1\n  dataOffset(sub_0)\n  0x00\n  codecopy\n  0x00\n  return\nstop\n\nsub_0: assembly {\n        /* \"contracts/TaskList.sol\":69:1024  contract TaskList {... */\n      mstore(0x40, 0x80)\n      callvalue\n      dup1\n      iszero\n      tag_1\n      jumpi\n      0x00\n      dup1\n      revert\n    tag_1:\n      pop\n      jumpi(tag_2, lt(calldatasize, 0x04))\n      shr(0xe0, calldataload(0x00))\n      dup1\n      0x02a70875\n      eq\n      tag_3\n      jumpi\n      dup1\n      0x3f82a08e\n      eq\n      tag_4\n      jumpi\n      dup1\n      0x8f1b6f60\n      eq\n      tag_5\n      jumpi\n      dup1\n      0xdbb9ae77\n      eq\n      tag_6\n      jumpi\n    tag_2:\n      0x00\n      dup1\n      revert\n        /* \"contracts/TaskList.sol\":914:1017  function getAllTaskTxt () public view returns ( string  [] memory _textTasks)... */\n    tag_3:\n      tag_7\n      tag_8\n      jump\t// in\n    tag_7:\n      mload(0x40)\n      tag_9\n      swap2\n      swap1\n      tag_10\n      jump\t// in\n    tag_9:\n      mload(0x40)\n      dup1\n      swap2\n      sub\n      swap1\n      return\n        /* \"contracts/TaskList.sol\":603:785  function getTaskbyId(uint8 _id) public view returns ( Task memory _task ) ... */\n    tag_4:\n      tag_11\n      0x04\n      dup1\n      calldatasize\n      sub\n      dup2\n      add\n      swap1\n      tag_12\n      swap2\n      swap1\n      tag_13\n      jump\t// in\n    tag_12:\n      tag_14\n      jump\t// in\n    tag_11:\n      mload(0x40)\n      tag_15\n      swap2\n      swap1\n      tag_16\n      jump\t// in\n    tag_15:\n      mload(0x40)\n      dup1\n      swap2\n      sub\n      swap1\n      return\n        /* \"contracts/TaskList.sol\":789:910  function getTaskTextbyId(uint8 _id) public view returns  (string memory _taskText)... */\n    tag_5:\n      tag_17\n      0x04\n      dup1\n      calldatasize\n      sub\n      dup2\n      add\n      swap1\n      tag_18\n      swap2\n      swap1\n      tag_13\n      jump\t// in\n    tag_18:\n      tag_19\n      jump\t// in\n    tag_17:\n      mload(0x40)\n      tag_20\n      swap2\n      swap1\n      tag_21\n      jump\t// in\n    tag_20:\n      mload(0x40)\n      dup1\n      swap2\n      sub\n      swap1\n      return\n        /* \"contracts/TaskList.sol\":382:599  function addTask(string memory _text, difficulty _dif) public  returns (bool success)... */\n    tag_6:\n      tag_22\n      0x04\n      dup1\n      calldatasize\n      sub\n      dup2\n      add\n      swap1\n      tag_23\n      swap2\n      swap1\n      tag_24\n      jump\t// in\n    tag_23:\n      tag_25\n      jump\t// in\n    tag_22:\n      mload(0x40)\n      tag_26\n      swap2\n      swap1\n      tag_27\n      jump\t// in\n    tag_26:\n      mload(0x40)\n      dup1\n      swap2\n      sub\n      swap1\n      return\n        /* \"contracts/TaskList.sol\":914:1017  function getAllTaskTxt () public view returns ( string  [] memory _textTasks)... */\n    tag_8:\n        /* \"contracts/TaskList.sol\":962:990  string  [] memory _textTasks */\n      0x60\n        /* \"contracts/TaskList.sol\":1004:1012  textTask */\n      0x02\n        /* \"contracts/TaskList.sol\":997:1012  return textTask */\n      dup1\n      sload\n      dup1\n      0x20\n      mul\n      0x20\n      add\n      mload(0x40)\n      swap1\n      dup2\n      add\n      0x40\n      mstore\n      dup1\n      swap3\n      swap2\n      swap1\n      dup2\n      dup2\n      mstore\n      0x20\n      add\n      0x00\n      swap1\n    tag_29:\n      dup3\n      dup3\n      lt\n      iszero\n      tag_30\n      jumpi\n      dup4\n      dup3\n      swap1\n      0x00\n      mstore\n      keccak256(0x00, 0x20)\n      add\n      dup1\n      sload\n      tag_32\n      swap1\n      tag_33\n      jump\t// in\n    tag_32:\n      dup1\n      0x1f\n      add\n      0x20\n      dup1\n      swap2\n      div\n      mul\n      0x20\n      add\n      mload(0x40)\n      swap1\n      dup2\n      add\n      0x40\n      mstore\n      dup1\n      swap3\n      swap2\n      swap1\n      dup2\n      dup2\n      mstore\n      0x20\n      add\n      dup3\n      dup1\n      sload\n      tag_34\n      swap1\n      tag_33\n      jump\t// in\n    tag_34:\n      dup1\n      iszero\n      tag_35\n      jumpi\n      dup1\n      0x1f\n      lt\n      tag_36\n      jumpi\n      0x0100\n      dup1\n      dup4\n      sload\n      div\n      mul\n      dup4\n      mstore\n      swap2\n      0x20\n      add\n      swap2\n      jump(tag_35)\n    tag_36:\n      dup3\n      add\n      swap2\n      swap1\n      0x00\n      mstore\n      keccak256(0x00, 0x20)\n      swap1\n    tag_37:\n      dup2\n      sload\n      dup2\n      mstore\n      swap1\n      0x01\n      add\n      swap1\n      0x20\n      add\n      dup1\n      dup4\n      gt\n      tag_37\n      jumpi\n      dup3\n      swap1\n      sub\n      0x1f\n      and\n      dup3\n      add\n      swap2\n    tag_35:\n      pop\n      pop\n      pop\n      pop\n      pop\n      dup2\n      mstore\n      0x20\n      add\n      swap1\n      0x01\n      add\n      swap1\n      jump(tag_29)\n    tag_30:\n      pop\n      pop\n      pop\n      pop\n      swap1\n      pop\n        /* \"contracts/TaskList.sol\":914:1017  function getAllTaskTxt () public view returns ( string  [] memory _textTasks)... */\n      swap1\n      jump\t// out\n        /* \"contracts/TaskList.sol\":603:785  function getTaskbyId(uint8 _id) public view returns ( Task memory _task ) ... */\n    tag_14:\n        /* \"contracts/TaskList.sol\":657:674  Task memory _task */\n      tag_38\n      tag_39\n      jump\t// in\n    tag_38:\n        /* \"contracts/TaskList.sol\":771:776  Tasks */\n      0x00\n        /* \"contracts/TaskList.sol\":771:781  Tasks[_id] */\n      dup1\n        /* \"contracts/TaskList.sol\":777:780  _id */\n      dup4\n        /* \"contracts/TaskList.sol\":771:781  Tasks[_id] */\n      0xff\n      and\n      0xff\n      and\n      dup2\n      mstore\n      0x20\n      add\n      swap1\n      dup2\n      mstore\n      0x20\n      add\n      0x00\n      keccak256\n        /* \"contracts/TaskList.sol\":764:781  return Tasks[_id] */\n      mload(0x40)\n      dup1\n      0x60\n      add\n      0x40\n      mstore\n      swap1\n      dup2\n      0x00\n      dup3\n      add\n      dup1\n      sload\n      tag_41\n      swap1\n      tag_33\n      jump\t// in\n    tag_41:\n      dup1\n      0x1f\n      add\n      0x20\n      dup1\n      swap2\n      div\n      mul\n      0x20\n      add\n      mload(0x40)\n      swap1\n      dup2\n      add\n      0x40\n      mstore\n      dup1\n      swap3\n      swap2\n      swap1\n      dup2\n      dup2\n      mstore\n      0x20\n      add\n      dup3\n      dup1\n      sload\n      tag_42\n      swap1\n      tag_33\n      jump\t// in\n    tag_42:\n      dup1\n      iszero\n      tag_43\n      jumpi\n      dup1\n      0x1f\n      lt\n      tag_44\n      jumpi\n      0x0100\n      dup1\n      dup4\n      sload\n      div\n      mul\n      dup4\n      mstore\n      swap2\n      0x20\n      add\n      swap2\n      jump(tag_43)\n    tag_44:\n      dup3\n      add\n      swap2\n      swap1\n      0x00\n      mstore\n      keccak256(0x00, 0x20)\n      swap1\n    tag_45:\n      dup2\n      sload\n      dup2\n      mstore\n      swap1\n      0x01\n      add\n      swap1\n      0x20\n      add\n      dup1\n      dup4\n      gt\n      tag_45\n      jumpi\n      dup3\n      swap1\n      sub\n      0x1f\n      and\n      dup3\n      add\n      swap2\n    tag_43:\n      pop\n      pop\n      pop\n      pop\n      pop\n      dup2\n      mstore\n      0x20\n      add\n      0x01\n      dup3\n      add\n      0x00\n      swap1\n      sload\n      swap1\n      0x0100\n      exp\n      swap1\n      div\n      0xff\n      and\n      0x03\n      dup2\n      gt\n      iszero\n      tag_46\n      jumpi\n      tag_47\n      tag_48\n      jump\t// in\n    tag_47:\n    tag_46:\n      0x03\n      dup2\n      gt\n      iszero\n      tag_49\n      jumpi\n      tag_50\n      tag_48\n      jump\t// in\n    tag_50:\n    tag_49:\n      dup2\n      mstore\n      0x20\n      add\n      0x01\n      dup3\n      add\n      0x01\n      swap1\n      sload\n      swap1\n      0x0100\n      exp\n      swap1\n      div\n      0xff\n      and\n      0xff\n      and\n      0xff\n      and\n      dup2\n      mstore\n      pop\n      pop\n      swap1\n      pop\n        /* \"contracts/TaskList.sol\":603:785  function getTaskbyId(uint8 _id) public view returns ( Task memory _task ) ... */\n      swap2\n      swap1\n      pop\n      jump\t// out\n        /* \"contracts/TaskList.sol\":789:910  function getTaskTextbyId(uint8 _id) public view returns  (string memory _taskText)... */\n    tag_19:\n        /* \"contracts/TaskList.sol\":847:870  string memory _taskText */\n      0x60\n        /* \"contracts/TaskList.sol\":887:892  Tasks */\n      0x00\n        /* \"contracts/TaskList.sol\":887:897  Tasks[_id] */\n      dup1\n        /* \"contracts/TaskList.sol\":893:896  _id */\n      dup4\n        /* \"contracts/TaskList.sol\":887:897  Tasks[_id] */\n      0xff\n      and\n      0xff\n      and\n      dup2\n      mstore\n      0x20\n      add\n      swap1\n      dup2\n      mstore\n      0x20\n      add\n      0x00\n      keccak256\n        /* \"contracts/TaskList.sol\":887:906  Tasks[_id].nameTask */\n      0x00\n      add\n        /* \"contracts/TaskList.sol\":880:906  return Tasks[_id].nameTask */\n      dup1\n      sload\n      tag_52\n      swap1\n      tag_33\n      jump\t// in\n    tag_52:\n      dup1\n      0x1f\n      add\n      0x20\n      dup1\n      swap2\n      div\n      mul\n      0x20\n      add\n      mload(0x40)\n      swap1\n      dup2\n      add\n      0x40\n      mstore\n      dup1\n      swap3\n      swap2\n      swap1\n      dup2\n      dup2\n      mstore\n      0x20\n      add\n      dup3\n      dup1\n      sload\n      tag_53\n      swap1\n      tag_33\n      jump\t// in\n    tag_53:\n      dup1\n      iszero\n      tag_54\n      jumpi\n      dup1\n      0x1f\n      lt\n      tag_55\n      jumpi\n      0x0100\n      dup1\n      dup4\n      sload\n      div\n      mul\n      dup4\n      mstore\n      swap2\n      0x20\n      add\n      swap2\n      jump(tag_54)\n    tag_55:\n      dup3\n      add\n      swap2\n      swap1\n      0x00\n      mstore\n      keccak256(0x00, 0x20)\n      swap1\n    tag_56:\n      dup2\n      sload\n      dup2\n      mstore\n      swap1\n      0x01\n      add\n      swap1\n      0x20\n      add\n      dup1\n      dup4\n      gt\n      tag_56\n      jumpi\n      dup3\n      swap1\n      sub\n      0x1f\n      and\n      dup3\n      add\n      swap2\n    tag_54:\n      pop\n      pop\n      pop\n      pop\n      pop\n      swap1\n      pop\n        /* \"contracts/TaskList.sol\":789:910  function getTaskTextbyId(uint8 _id) public view returns  (string memory _taskText)... */\n      swap2\n      swap1\n      pop\n      jump\t// out\n        /* \"contracts/TaskList.sol\":382:599  function addTask(string memory _text, difficulty _dif) public  returns (bool success)... */\n    tag_25:\n        /* \"contracts/TaskList.sol\":454:466  bool success */\n      0x00\n        /* \"contracts/TaskList.sol\":494:521  Task( _text, _dif, numTask) */\n      mload(0x40)\n      dup1\n      0x60\n      add\n      0x40\n      mstore\n      dup1\n        /* \"contracts/TaskList.sol\":500:505  _text */\n      dup5\n        /* \"contracts/TaskList.sol\":494:521  Task( _text, _dif, numTask) */\n      dup2\n      mstore\n      0x20\n      add\n        /* \"contracts/TaskList.sol\":507:511  _dif */\n      dup4\n        /* \"contracts/TaskList.sol\":494:521  Task( _text, _dif, numTask) */\n      0x03\n      dup2\n      gt\n      iszero\n      tag_58\n      jumpi\n      tag_59\n      tag_48\n      jump\t// in\n    tag_59:\n    tag_58:\n      dup2\n      mstore\n      0x20\n      add\n        /* \"contracts/TaskList.sol\":513:520  numTask */\n      0x01\n      0x00\n      swap1\n      sload\n      swap1\n      0x0100\n      exp\n      swap1\n      div\n      0xff\n      and\n        /* \"contracts/TaskList.sol\":494:521  Task( _text, _dif, numTask) */\n      0xff\n      and\n      dup2\n      mstore\n      pop\n        /* \"contracts/TaskList.sol\":478:483  Tasks */\n      0x00\n        /* \"contracts/TaskList.sol\":478:492  Tasks[numTask] */\n      dup1\n        /* \"contracts/TaskList.sol\":484:491  numTask */\n      0x01\n      0x00\n      swap1\n      sload\n      swap1\n      0x0100\n      exp\n      swap1\n      div\n      0xff\n      and\n        /* \"contracts/TaskList.sol\":478:492  Tasks[numTask] */\n      0xff\n      and\n      0xff\n      and\n      dup2\n      mstore\n      0x20\n      add\n      swap1\n      dup2\n      mstore\n      0x20\n      add\n      0x00\n      keccak256\n        /* \"contracts/TaskList.sol\":478:521  Tasks[numTask]= Task( _text, _dif, numTask) */\n      0x00\n      dup3\n      add\n      mload\n      dup2\n      0x00\n      add\n      swap1\n      dup2\n      tag_60\n      swap2\n      swap1\n      tag_61\n      jump\t// in\n    tag_60:\n      pop\n      0x20\n      dup3\n      add\n      mload\n      dup2\n      0x01\n      add\n      exp(0x0100, 0x00)\n      dup2\n      sload\n      dup2\n      0xff\n      mul\n      not\n      and\n      swap1\n      dup4\n      0x03\n      dup2\n      gt\n      iszero\n      tag_62\n      jumpi\n      tag_63\n      tag_48\n      jump\t// in\n    tag_63:\n    tag_62:\n      mul\n      or\n      swap1\n      sstore\n      pop\n      0x40\n      dup3\n      add\n      mload\n      dup2\n      0x01\n      add\n      exp(0x0100, 0x01)\n      dup2\n      sload\n      dup2\n      0xff\n      mul\n      not\n      and\n      swap1\n      dup4\n      0xff\n      and\n      mul\n      or\n      swap1\n      sstore\n      pop\n      swap1\n      pop\n      pop\n        /* \"contracts/TaskList.sol\":525:533  textTask */\n      0x02\n        /* \"contracts/TaskList.sol\":539:544  Tasks */\n      0x00\n        /* \"contracts/TaskList.sol\":539:553  Tasks[numTask] */\n      dup1\n        /* \"contracts/TaskList.sol\":545:552  numTask */\n      0x01\n      0x00\n      swap1\n      sload\n      swap1\n      0x0100\n      exp\n      swap1\n      div\n      0xff\n      and\n        /* \"contracts/TaskList.sol\":539:553  Tasks[numTask] */\n      0xff\n      and\n      0xff\n      and\n      dup2\n      mstore\n      0x20\n      add\n      swap1\n      dup2\n      mstore\n      0x20\n      add\n      0x00\n      keccak256\n        /* \"contracts/TaskList.sol\":539:562  Tasks[numTask].nameTask */\n      0x00\n      add\n        /* \"contracts/TaskList.sol\":525:563  textTask.push(Tasks[numTask].nameTask) */\n      swap1\n      dup1\n      0x01\n      dup2\n      sload\n      add\n      dup1\n      dup3\n      sstore\n      dup1\n      swap2\n      pop\n      pop\n      0x01\n      swap1\n      sub\n      swap1\n      0x00\n      mstore\n      keccak256(0x00, 0x20)\n      add\n      0x00\n      swap1\n      swap2\n      swap1\n      swap2\n      swap1\n      swap2\n      pop\n      swap1\n      dup2\n      tag_65\n      swap2\n      swap1\n      tag_66\n      jump\t// in\n    tag_65:\n      pop\n        /* \"contracts/TaskList.sol\":567:574  numTask */\n      0x01\n      0x00\n        /* \"contracts/TaskList.sol\":567:576  numTask++ */\n      dup2\n      dup2\n      swap1\n      sload\n      swap1\n      0x0100\n      exp\n      swap1\n      div\n      0xff\n      and\n      dup1\n      swap3\n      swap2\n      swap1\n      tag_67\n      swap1\n      tag_68\n      jump\t// in\n    tag_67:\n      swap2\n      swap1\n      0x0100\n      exp\n      dup2\n      sload\n      dup2\n      0xff\n      mul\n      not\n      and\n      swap1\n      dup4\n      0xff\n      and\n      mul\n      or\n      swap1\n      sstore\n      pop\n      pop\n        /* \"contracts/TaskList.sol\":589:593  true */\n      0x01\n        /* \"contracts/TaskList.sol\":582:593  return true */\n      swap1\n      pop\n        /* \"contracts/TaskList.sol\":382:599  function addTask(string memory _text, difficulty _dif) public  returns (bool success)... */\n      swap3\n      swap2\n      pop\n      pop\n      jump\t// out\n    tag_39:\n      mload(0x40)\n      dup1\n      0x60\n      add\n      0x40\n      mstore\n      dup1\n      0x60\n      dup2\n      mstore\n      0x20\n      add\n      0x00\n      0x03\n      dup2\n      gt\n      iszero\n      tag_69\n      jumpi\n      tag_70\n      tag_48\n      jump\t// in\n    tag_70:\n    tag_69:\n      dup2\n      mstore\n      0x20\n      add\n      and(0xff, 0x00)\n      dup2\n      mstore\n      pop\n      swap1\n      jump\t// out\n        /* \"#utility.yul\":7:131   */\n    tag_71:\n        /* \"#utility.yul\":84:90   */\n      0x00\n        /* \"#utility.yul\":118:123   */\n      dup2\n        /* \"#utility.yul\":112:124   */\n      mload\n        /* \"#utility.yul\":102:124   */\n      swap1\n      pop\n        /* \"#utility.yul\":7:131   */\n      swap2\n      swap1\n      pop\n      jump\t// out\n        /* \"#utility.yul\":137:331   */\n    tag_72:\n        /* \"#utility.yul\":246:257   */\n      0x00\n        /* \"#utility.yul\":280:286   */\n      dup3\n        /* \"#utility.yul\":275:278   */\n      dup3\n        /* \"#utility.yul\":268:287   */\n      mstore\n        /* \"#utility.yul\":320:324   */\n      0x20\n        /* \"#utility.yul\":315:318   */\n      dup3\n        /* \"#utility.yul\":311:325   */\n      add\n        /* \"#utility.yul\":296:325   */\n      swap1\n      pop\n        /* \"#utility.yul\":137:331   */\n      swap3\n      swap2\n      pop\n      pop\n      jump\t// out\n        /* \"#utility.yul\":337:479   */\n    tag_73:\n        /* \"#utility.yul\":414:418   */\n      0x00\n        /* \"#utility.yul\":437:440   */\n      dup2\n        /* \"#utility.yul\":429:440   */\n      swap1\n      pop\n        /* \"#utility.yul\":467:471   */\n      0x20\n        /* \"#utility.yul\":462:465   */\n      dup3\n        /* \"#utility.yul\":458:472   */\n      add\n        /* \"#utility.yul\":450:472   */\n      swap1\n      pop\n        /* \"#utility.yul\":337:479   */\n      swap2\n      swap1\n      pop\n      jump\t// out\n        /* \"#utility.yul\":485:584   */\n    tag_74:\n        /* \"#utility.yul\":537:543   */\n      0x00\n        /* \"#utility.yul\":571:576   */\n      dup2\n        /* \"#utility.yul\":565:577   */\n      mload\n        /* \"#utility.yul\":555:577   */\n      swap1\n      pop\n        /* \"#utility.yul\":485:584   */\n      swap2\n      swap1\n      pop\n      jump\t// out\n        /* \"#utility.yul\":590:749   */\n    tag_75:\n        /* \"#utility.yul\":664:675   */\n      0x00\n        /* \"#utility.yul\":698:704   */\n      dup3\n        /* \"#utility.yul\":693:696   */\n      dup3\n        /* \"#utility.yul\":686:705   */\n      mstore\n        /* \"#utility.yul\":738:742   */\n      0x20\n        /* \"#utility.yul\":733:736   */\n      dup3\n        /* \"#utility.yul\":729:743   */\n      add\n        /* \"#utility.yul\":714:743   */\n      swap1\n      pop\n        /* \"#utility.yul\":590:749   */\n      swap3\n      swap2\n      pop\n      pop\n      jump\t// out\n        /* \"#utility.yul\":755:1001   */\n    tag_76:\n        /* \"#utility.yul\":836:837   */\n      0x00\n        /* \"#utility.yul\":846:959   */\n    tag_136:\n        /* \"#utility.yul\":860:866   */\n      dup4\n        /* \"#utility.yul\":857:858   */\n      dup2\n        /* \"#utility.yul\":854:867   */\n      lt\n        /* \"#utility.yul\":846:959   */\n      iszero\n      tag_138\n      jumpi\n        /* \"#utility.yul\":945:946   */\n      dup1\n        /* \"#utility.yul\":940:943   */\n      dup3\n        /* \"#utility.yul\":936:947   */\n      add\n        /* \"#utility.yul\":930:948   */\n      mload\n        /* \"#utility.yul\":926:927   */\n      dup2\n        /* \"#utility.yul\":921:924   */\n      dup5\n        /* \"#utility.yul\":917:928   */\n      add\n        /* \"#utility.yul\":910:949   */\n      mstore\n        /* \"#utility.yul\":882:884   */\n      0x20\n        /* \"#utility.yul\":879:880   */\n      dup2\n        /* \"#utility.yul\":875:885   */\n      add\n        /* \"#utility.yul\":870:885   */\n      swap1\n      pop\n        /* \"#utility.yul\":846:959   */\n      jump(tag_136)\n    tag_138:\n        /* \"#utility.yul\":993:994   */\n      0x00\n        /* \"#utility.yul\":984:990   */\n      dup5\n        /* \"#utility.yul\":979:982   */\n      dup5\n        /* \"#utility.yul\":975:991   */\n      add\n        /* \"#utility.yul\":968:995   */\n      mstore\n        /* \"#utility.yul\":817:1001   */\n      pop\n        /* \"#utility.yul\":755:1001   */\n      pop\n      pop\n      pop\n      jump\t// out\n        /* \"#utility.yul\":1007:1109   */\n    tag_77:\n        /* \"#utility.yul\":1048:1054   */\n      0x00\n        /* \"#utility.yul\":1099:1101   */\n      0x1f\n        /* \"#utility.yul\":1095:1102   */\n      not\n        /* \"#utility.yul\":1090:1092   */\n      0x1f\n        /* \"#utility.yul\":1083:1088   */\n      dup4\n        /* \"#utility.yul\":1079:1093   */\n      add\n        /* \"#utility.yul\":1075:1103   */\n      and\n        /* \"#utility.yul\":1065:1103   */\n      swap1\n      pop\n        /* \"#utility.yul\":1007:1109   */\n      swap2\n      swap1\n      pop\n      jump\t// out\n        /* \"#utility.yul\":1115:1472   */\n    tag_78:\n        /* \"#utility.yul\":1193:1196   */\n      0x00\n        /* \"#utility.yul\":1221:1260   */\n      tag_141\n        /* \"#utility.yul\":1254:1259   */\n      dup3\n        /* \"#utility.yul\":1221:1260   */\n      tag_74\n      jump\t// in\n    tag_141:\n        /* \"#utility.yul\":1276:1337   */\n      tag_142\n        /* \"#utility.yul\":1330:1336   */\n      dup2\n        /* \"#utility.yul\":1325:1328   */\n      dup6\n        /* \"#utility.yul\":1276:1337   */\n      tag_75\n      jump\t// in\n    tag_142:\n        /* \"#utility.yul\":1269:1337   */\n      swap4\n      pop\n        /* \"#utility.yul\":1346:1411   */\n      tag_143\n        /* \"#utility.yul\":1404:1410   */\n      dup2\n        /* \"#utility.yul\":1399:1402   */\n      dup6\n        /* \"#utility.yul\":1392:1396   */\n      0x20\n        /* \"#utility.yul\":1385:1390   */\n      dup7\n        /* \"#utility.yul\":1381:1397   */\n      add\n        /* \"#utility.yul\":1346:1411   */\n      tag_76\n      jump\t// in\n    tag_143:\n        /* \"#utility.yul\":1436:1465   */\n      tag_144\n        /* \"#utility.yul\":1458:1464   */\n      dup2\n        /* \"#utility.yul\":1436:1465   */\n      tag_77\n      jump\t// in\n    tag_144:\n        /* \"#utility.yul\":1431:1434   */\n      dup5\n        /* \"#utility.yul\":1427:1466   */\n      add\n        /* \"#utility.yul\":1420:1466   */\n      swap2\n      pop\n        /* \"#utility.yul\":1197:1472   */\n      pop\n        /* \"#utility.yul\":1115:1472   */\n      swap3\n      swap2\n      pop\n      pop\n      jump\t// out\n        /* \"#utility.yul\":1478:1674   */\n    tag_79:\n        /* \"#utility.yul\":1567:1577   */\n      0x00\n        /* \"#utility.yul\":1602:1668   */\n      tag_146\n        /* \"#utility.yul\":1664:1667   */\n      dup4\n        /* \"#utility.yul\":1656:1662   */\n      dup4\n        /* \"#utility.yul\":1602:1668   */\n      tag_78\n      jump\t// in\n    tag_146:\n        /* \"#utility.yul\":1588:1668   */\n      swap1\n      pop\n        /* \"#utility.yul\":1478:1674   */\n      swap3\n      swap2\n      pop\n      pop\n      jump\t// out\n        /* \"#utility.yul\":1680:1803   */\n    tag_80:\n        /* \"#utility.yul\":1760:1764   */\n      0x00\n        /* \"#utility.yul\":1792:1796   */\n      0x20\n        /* \"#utility.yul\":1787:1790   */\n      dup3\n        /* \"#utility.yul\":1783:1797   */\n      add\n        /* \"#utility.yul\":1775:1797   */\n      swap1\n      pop\n        /* \"#utility.yul\":1680:1803   */\n      swap2\n      swap1\n      pop\n      jump\t// out\n        /* \"#utility.yul\":1837:2828   */\n    tag_81:\n        /* \"#utility.yul\":1976:1979   */\n      0x00\n        /* \"#utility.yul\":2005:2069   */\n      tag_149\n        /* \"#utility.yul\":2063:2068   */\n      dup3\n        /* \"#utility.yul\":2005:2069   */\n      tag_71\n      jump\t// in\n    tag_149:\n        /* \"#utility.yul\":2085:2181   */\n      tag_150\n        /* \"#utility.yul\":2174:2180   */\n      dup2\n        /* \"#utility.yul\":2169:2172   */\n      dup6\n        /* \"#utility.yul\":2085:2181   */\n      tag_72\n      jump\t// in\n    tag_150:\n        /* \"#utility.yul\":2078:2181   */\n      swap4\n      pop\n        /* \"#utility.yul\":2207:2210   */\n      dup4\n        /* \"#utility.yul\":2252:2256   */\n      0x20\n        /* \"#utility.yul\":2244:2250   */\n      dup3\n        /* \"#utility.yul\":2240:2257   */\n      mul\n        /* \"#utility.yul\":2235:2238   */\n      dup6\n        /* \"#utility.yul\":2231:2258   */\n      add\n        /* \"#utility.yul\":2282:2348   */\n      tag_151\n        /* \"#utility.yul\":2342:2347   */\n      dup6\n        /* \"#utility.yul\":2282:2348   */\n      tag_73\n      jump\t// in\n    tag_151:\n        /* \"#utility.yul\":2371:2378   */\n      dup1\n        /* \"#utility.yul\":2402:2403   */\n      0x00\n        /* \"#utility.yul\":2387:2783   */\n    tag_152:\n        /* \"#utility.yul\":2412:2418   */\n      dup6\n        /* \"#utility.yul\":2409:2410   */\n      dup2\n        /* \"#utility.yul\":2406:2419   */\n      lt\n        /* \"#utility.yul\":2387:2783   */\n      iszero\n      tag_154\n      jumpi\n        /* \"#utility.yul\":2483:2492   */\n      dup5\n        /* \"#utility.yul\":2477:2481   */\n      dup5\n        /* \"#utility.yul\":2473:2493   */\n      sub\n        /* \"#utility.yul\":2468:2471   */\n      dup10\n        /* \"#utility.yul\":2461:2494   */\n      mstore\n        /* \"#utility.yul\":2534:2540   */\n      dup2\n        /* \"#utility.yul\":2528:2541   */\n      mload\n        /* \"#utility.yul\":2562:2646   */\n      tag_155\n        /* \"#utility.yul\":2641:2645   */\n      dup6\n        /* \"#utility.yul\":2626:2639   */\n      dup3\n        /* \"#utility.yul\":2562:2646   */\n      tag_79\n      jump\t// in\n    tag_155:\n        /* \"#utility.yul\":2554:2646   */\n      swap5\n      pop\n        /* \"#utility.yul\":2669:2739   */\n      tag_156\n        /* \"#utility.yul\":2732:2738   */\n      dup4\n        /* \"#utility.yul\":2669:2739   */\n      tag_80\n      jump\t// in\n    tag_156:\n        /* \"#utility.yul\":2659:2739   */\n      swap3\n      pop\n        /* \"#utility.yul\":2768:2772   */\n      0x20\n        /* \"#utility.yul\":2763:2766   */\n      dup11\n        /* \"#utility.yul\":2759:2773   */\n      add\n        /* \"#utility.yul\":2752:2773   */\n      swap10\n      pop\n        /* \"#utility.yul\":2447:2783   */\n      pop\n        /* \"#utility.yul\":2434:2435   */\n      0x01\n        /* \"#utility.yul\":2431:2432   */\n      dup2\n        /* \"#utility.yul\":2427:2436   */\n      add\n        /* \"#utility.yul\":2422:2436   */\n      swap1\n      pop\n        /* \"#utility.yul\":2387:2783   */\n      jump(tag_152)\n    tag_154:\n        /* \"#utility.yul\":2391:2405   */\n      pop\n        /* \"#utility.yul\":2799:2803   */\n      dup3\n        /* \"#utility.yul\":2792:2803   */\n      swap8\n      pop\n        /* \"#utility.yul\":2819:2822   */\n      dup8\n        /* \"#utility.yul\":2812:2822   */\n      swap6\n      pop\n        /* \"#utility.yul\":1981:2828   */\n      pop\n      pop\n      pop\n      pop\n      pop\n        /* \"#utility.yul\":1837:2828   */\n      swap3\n      swap2\n      pop\n      pop\n      jump\t// out\n        /* \"#utility.yul\":2834:3247   */\n    tag_10:\n        /* \"#utility.yul\":2997:3001   */\n      0x00\n        /* \"#utility.yul\":3035:3037   */\n      0x20\n        /* \"#utility.yul\":3024:3033   */\n      dup3\n        /* \"#utility.yul\":3020:3038   */\n      add\n        /* \"#utility.yul\":3012:3038   */\n      swap1\n      pop\n        /* \"#utility.yul\":3084:3093   */\n      dup2\n        /* \"#utility.yul\":3078:3082   */\n      dup2\n        /* \"#utility.yul\":3074:3094   */\n      sub\n        /* \"#utility.yul\":3070:3071   */\n      0x00\n        /* \"#utility.yul\":3059:3068   */\n      dup4\n        /* \"#utility.yul\":3055:3072   */\n      add\n        /* \"#utility.yul\":3048:3095   */\n      mstore\n        /* \"#utility.yul\":3112:3240   */\n      tag_158\n        /* \"#utility.yul\":3235:3239   */\n      dup2\n        /* \"#utility.yul\":3226:3232   */\n      dup5\n        /* \"#utility.yul\":3112:3240   */\n      tag_81\n      jump\t// in\n    tag_158:\n        /* \"#utility.yul\":3104:3240   */\n      swap1\n      pop\n        /* \"#utility.yul\":2834:3247   */\n      swap3\n      swap2\n      pop\n      pop\n      jump\t// out\n        /* \"#utility.yul\":3253:3328   */\n    tag_82:\n        /* \"#utility.yul\":3286:3292   */\n      0x00\n        /* \"#utility.yul\":3319:3321   */\n      0x40\n        /* \"#utility.yul\":3313:3322   */\n      mload\n        /* \"#utility.yul\":3303:3322   */\n      swap1\n      pop\n        /* \"#utility.yul\":3253:3328   */\n      swap1\n      jump\t// out\n        /* \"#utility.yul\":3334:3451   */\n    tag_83:\n        /* \"#utility.yul\":3443:3444   */\n      0x00\n        /* \"#utility.yul\":3440:3441   */\n      dup1\n        /* \"#utility.yul\":3433:3445   */\n      revert\n        /* \"#utility.yul\":3457:3574   */\n    tag_84:\n        /* \"#utility.yul\":3566:3567   */\n      0x00\n        /* \"#utility.yul\":3563:3564   */\n      dup1\n        /* \"#utility.yul\":3556:3568   */\n      revert\n        /* \"#utility.yul\":3580:3666   */\n    tag_85:\n        /* \"#utility.yul\":3615:3622   */\n      0x00\n        /* \"#utility.yul\":3655:3659   */\n      0xff\n        /* \"#utility.yul\":3648:3653   */\n      dup3\n        /* \"#utility.yul\":3644:3660   */\n      and\n        /* \"#utility.yul\":3633:3660   */\n      swap1\n      pop\n        /* \"#utility.yul\":3580:3666   */\n      swap2\n      swap1\n      pop\n      jump\t// out\n        /* \"#utility.yul\":3672:3790   */\n    tag_86:\n        /* \"#utility.yul\":3743:3765   */\n      tag_164\n        /* \"#utility.yul\":3759:3764   */\n      dup2\n        /* \"#utility.yul\":3743:3765   */\n      tag_85\n      jump\t// in\n    tag_164:\n        /* \"#utility.yul\":3736:3741   */\n      dup2\n        /* \"#utility.yul\":3733:3766   */\n      eq\n        /* \"#utility.yul\":3723:3784   */\n      tag_165\n      jumpi\n        /* \"#utility.yul\":3780:3781   */\n      0x00\n        /* \"#utility.yul\":3777:3778   */\n      dup1\n        /* \"#utility.yul\":3770:3782   */\n      revert\n        /* \"#utility.yul\":3723:3784   */\n    tag_165:\n        /* \"#utility.yul\":3672:3790   */\n      pop\n      jump\t// out\n        /* \"#utility.yul\":3796:3931   */\n    tag_87:\n        /* \"#utility.yul\":3840:3845   */\n      0x00\n        /* \"#utility.yul\":3878:3884   */\n      dup2\n        /* \"#utility.yul\":3865:3885   */\n      calldataload\n        /* \"#utility.yul\":3856:3885   */\n      swap1\n      pop\n        /* \"#utility.yul\":3894:3925   */\n      tag_167\n        /* \"#utility.yul\":3919:3924   */\n      dup2\n        /* \"#utility.yul\":3894:3925   */\n      tag_86\n      jump\t// in\n    tag_167:\n        /* \"#utility.yul\":3796:3931   */\n      swap3\n      swap2\n      pop\n      pop\n      jump\t// out\n        /* \"#utility.yul\":3937:4262   */\n    tag_13:\n        /* \"#utility.yul\":3994:4000   */\n      0x00\n        /* \"#utility.yul\":4043:4045   */\n      0x20\n        /* \"#utility.yul\":4031:4040   */\n      dup3\n        /* \"#utility.yul\":4022:4029   */\n      dup5\n        /* \"#utility.yul\":4018:4041   */\n      sub\n        /* \"#utility.yul\":4014:4046   */\n      slt\n        /* \"#utility.yul\":4011:4130   */\n      iszero\n      tag_169\n      jumpi\n        /* \"#utility.yul\":4049:4128   */\n      tag_170\n      tag_83\n      jump\t// in\n    tag_170:\n        /* \"#utility.yul\":4011:4130   */\n    tag_169:\n        /* \"#utility.yul\":4169:4170   */\n      0x00\n        /* \"#utility.yul\":4194:4245   */\n      tag_171\n        /* \"#utility.yul\":4237:4244   */\n      dup5\n        /* \"#utility.yul\":4228:4234   */\n      dup3\n        /* \"#utility.yul\":4217:4226   */\n      dup6\n        /* \"#utility.yul\":4213:4235   */\n      add\n        /* \"#utility.yul\":4194:4245   */\n      tag_87\n      jump\t// in\n    tag_171:\n        /* \"#utility.yul\":4184:4245   */\n      swap2\n      pop\n        /* \"#utility.yul\":4140:4255   */\n      pop\n        /* \"#utility.yul\":3937:4262   */\n      swap3\n      swap2\n      pop\n      pop\n      jump\t// out\n        /* \"#utility.yul\":4268:4448   */\n    tag_48:\n        /* \"#utility.yul\":4316:4393   */\n      0x4e487b7100000000000000000000000000000000000000000000000000000000\n        /* \"#utility.yul\":4313:4314   */\n      0x00\n        /* \"#utility.yul\":4306:4394   */\n      mstore\n        /* \"#utility.yul\":4413:4417   */\n      0x21\n        /* \"#utility.yul\":4410:4411   */\n      0x04\n        /* \"#utility.yul\":4403:4418   */\n      mstore\n        /* \"#utility.yul\":4437:4441   */\n      0x24\n        /* \"#utility.yul\":4434:4435   */\n      0x00\n        /* \"#utility.yul\":4427:4442   */\n      revert\n        /* \"#utility.yul\":4454:4571   */\n    tag_88:\n        /* \"#utility.yul\":4539:4540   */\n      0x04\n        /* \"#utility.yul\":4532:4537   */\n      dup2\n        /* \"#utility.yul\":4529:4541   */\n      lt\n        /* \"#utility.yul\":4519:4565   */\n      tag_174\n      jumpi\n        /* \"#utility.yul\":4545:4563   */\n      tag_175\n      tag_48\n      jump\t// in\n    tag_175:\n        /* \"#utility.yul\":4519:4565   */\n    tag_174:\n        /* \"#utility.yul\":4454:4571   */\n      pop\n      jump\t// out\n        /* \"#utility.yul\":4577:4712   */\n    tag_89:\n        /* \"#utility.yul\":4626:4633   */\n      0x00\n        /* \"#utility.yul\":4655:4660   */\n      dup2\n        /* \"#utility.yul\":4644:4660   */\n      swap1\n      pop\n        /* \"#utility.yul\":4661:4706   */\n      tag_177\n        /* \"#utility.yul\":4700:4705   */\n      dup3\n        /* \"#utility.yul\":4661:4706   */\n      tag_88\n      jump\t// in\n    tag_177:\n        /* \"#utility.yul\":4577:4712   */\n      swap2\n      swap1\n      pop\n      jump\t// out\n        /* \"#utility.yul\":4718:4853   */\n    tag_90:\n        /* \"#utility.yul\":4778:4787   */\n      0x00\n        /* \"#utility.yul\":4811:4847   */\n      tag_179\n        /* \"#utility.yul\":4841:4846   */\n      dup3\n        /* \"#utility.yul\":4811:4847   */\n      tag_89\n      jump\t// in\n    tag_179:\n        /* \"#utility.yul\":4798:4847   */\n      swap1\n      pop\n        /* \"#utility.yul\":4718:4853   */\n      swap2\n      swap1\n      pop\n      jump\t// out\n        /* \"#utility.yul\":4859:5000   */\n    tag_91:\n        /* \"#utility.yul\":4946:4993   */\n      tag_181\n        /* \"#utility.yul\":4987:4992   */\n      dup2\n        /* \"#utility.yul\":4946:4993   */\n      tag_90\n      jump\t// in\n    tag_181:\n        /* \"#utility.yul\":4941:4944   */\n      dup3\n        /* \"#utility.yul\":4934:4994   */\n      mstore\n        /* \"#utility.yul\":4859:5000   */\n      pop\n      pop\n      jump\t// out\n        /* \"#utility.yul\":5006:5108   */\n    tag_92:\n        /* \"#utility.yul\":5079:5101   */\n      tag_183\n        /* \"#utility.yul\":5095:5100   */\n      dup2\n        /* \"#utility.yul\":5079:5101   */\n      tag_85\n      jump\t// in\n    tag_183:\n        /* \"#utility.yul\":5074:5077   */\n      dup3\n        /* \"#utility.yul\":5067:5102   */\n      mstore\n        /* \"#utility.yul\":5006:5108   */\n      pop\n      pop\n      jump\t// out\n        /* \"#utility.yul\":5166:5945   */\n    tag_93:\n        /* \"#utility.yul\":5275:5278   */\n      0x00\n        /* \"#utility.yul\":5311:5315   */\n      0x60\n        /* \"#utility.yul\":5306:5309   */\n      dup4\n        /* \"#utility.yul\":5302:5316   */\n      add\n        /* \"#utility.yul\":5402:5406   */\n      0x00\n        /* \"#utility.yul\":5395:5400   */\n      dup4\n        /* \"#utility.yul\":5391:5407   */\n      add\n        /* \"#utility.yul\":5385:5408   */\n      mload\n        /* \"#utility.yul\":5455:5458   */\n      dup5\n        /* \"#utility.yul\":5449:5453   */\n      dup3\n        /* \"#utility.yul\":5445:5459   */\n      sub\n        /* \"#utility.yul\":5438:5442   */\n      0x00\n        /* \"#utility.yul\":5433:5436   */\n      dup7\n        /* \"#utility.yul\":5429:5443   */\n      add\n        /* \"#utility.yul\":5422:5460   */\n      mstore\n        /* \"#utility.yul\":5481:5554   */\n      tag_185\n        /* \"#utility.yul\":5549:5553   */\n      dup3\n        /* \"#utility.yul\":5535:5547   */\n      dup3\n        /* \"#utility.yul\":5481:5554   */\n      tag_78\n      jump\t// in\n    tag_185:\n        /* \"#utility.yul\":5473:5554   */\n      swap2\n      pop\n        /* \"#utility.yul\":5326:5565   */\n      pop\n        /* \"#utility.yul\":5648:5652   */\n      0x20\n        /* \"#utility.yul\":5641:5646   */\n      dup4\n        /* \"#utility.yul\":5637:5653   */\n      add\n        /* \"#utility.yul\":5631:5654   */\n      mload\n        /* \"#utility.yul\":5667:5740   */\n      tag_186\n        /* \"#utility.yul\":5734:5738   */\n      0x20\n        /* \"#utility.yul\":5729:5732   */\n      dup7\n        /* \"#utility.yul\":5725:5739   */\n      add\n        /* \"#utility.yul\":5711:5723   */\n      dup3\n        /* \"#utility.yul\":5667:5740   */\n      tag_91\n      jump\t// in\n    tag_186:\n        /* \"#utility.yul\":5575:5750   */\n      pop\n        /* \"#utility.yul\":5830:5834   */\n      0x40\n        /* \"#utility.yul\":5823:5828   */\n      dup4\n        /* \"#utility.yul\":5819:5835   */\n      add\n        /* \"#utility.yul\":5813:5836   */\n      mload\n        /* \"#utility.yul\":5849:5908   */\n      tag_187\n        /* \"#utility.yul\":5902:5906   */\n      0x40\n        /* \"#utility.yul\":5897:5900   */\n      dup7\n        /* \"#utility.yul\":5893:5907   */\n      add\n        /* \"#utility.yul\":5879:5891   */\n      dup3\n        /* \"#utility.yul\":5849:5908   */\n      tag_92\n      jump\t// in\n    tag_187:\n        /* \"#utility.yul\":5760:5918   */\n      pop\n        /* \"#utility.yul\":5935:5939   */\n      dup1\n        /* \"#utility.yul\":5928:5939   */\n      swap2\n      pop\n        /* \"#utility.yul\":5280:5945   */\n      pop\n        /* \"#utility.yul\":5166:5945   */\n      swap3\n      swap2\n      pop\n      pop\n      jump\t// out\n        /* \"#utility.yul\":5951:6304   */\n    tag_16:\n        /* \"#utility.yul\":6084:6088   */\n      0x00\n        /* \"#utility.yul\":6122:6124   */\n      0x20\n        /* \"#utility.yul\":6111:6120   */\n      dup3\n        /* \"#utility.yul\":6107:6125   */\n      add\n        /* \"#utility.yul\":6099:6125   */\n      swap1\n      pop\n        /* \"#utility.yul\":6171:6180   */\n      dup2\n        /* \"#utility.yul\":6165:6169   */\n      dup2\n        /* \"#utility.yul\":6161:6181   */\n      sub\n        /* \"#utility.yul\":6157:6158   */\n      0x00\n        /* \"#utility.yul\":6146:6155   */\n      dup4\n        /* \"#utility.yul\":6142:6159   */\n      add\n        /* \"#utility.yul\":6135:6182   */\n      mstore\n        /* \"#utility.yul\":6199:6297   */\n      tag_189\n        /* \"#utility.yul\":6292:6296   */\n      dup2\n        /* \"#utility.yul\":6283:6289   */\n      dup5\n        /* \"#utility.yul\":6199:6297   */\n      tag_93\n      jump\t// in\n    tag_189:\n        /* \"#utility.yul\":6191:6297   */\n      swap1\n      pop\n        /* \"#utility.yul\":5951:6304   */\n      swap3\n      swap2\n      pop\n      pop\n      jump\t// out\n        /* \"#utility.yul\":6310:6479   */\n    tag_94:\n        /* \"#utility.yul\":6394:6405   */\n      0x00\n        /* \"#utility.yul\":6428:6434   */\n      dup3\n        /* \"#utility.yul\":6423:6426   */\n      dup3\n        /* \"#utility.yul\":6416:6435   */\n      mstore\n        /* \"#utility.yul\":6468:6472   */\n      0x20\n        /* \"#utility.yul\":6463:6466   */\n      dup3\n        /* \"#utility.yul\":6459:6473   */\n      add\n        /* \"#utility.yul\":6444:6473   */\n      swap1\n      pop\n        /* \"#utility.yul\":6310:6479   */\n      swap3\n      swap2\n      pop\n      pop\n      jump\t// out\n        /* \"#utility.yul\":6485:6862   */\n    tag_95:\n        /* \"#utility.yul\":6573:6576   */\n      0x00\n        /* \"#utility.yul\":6601:6640   */\n      tag_192\n        /* \"#utility.yul\":6634:6639   */\n      dup3\n        /* \"#utility.yul\":6601:6640   */\n      tag_74\n      jump\t// in\n    tag_192:\n        /* \"#utility.yul\":6656:6727   */\n      tag_193\n        /* \"#utility.yul\":6720:6726   */\n      dup2\n        /* \"#utility.yul\":6715:6718   */\n      dup6\n        /* \"#utility.yul\":6656:6727   */\n      tag_94\n      jump\t// in\n    tag_193:\n        /* \"#utility.yul\":6649:6727   */\n      swap4\n      pop\n        /* \"#utility.yul\":6736:6801   */\n      tag_194\n        /* \"#utility.yul\":6794:6800   */\n      dup2\n        /* \"#utility.yul\":6789:6792   */\n      dup6\n        /* \"#utility.yul\":6782:6786   */\n      0x20\n        /* \"#utility.yul\":6775:6780   */\n      dup7\n        /* \"#utility.yul\":6771:6787   */\n      add\n        /* \"#utility.yul\":6736:6801   */\n      tag_76\n      jump\t// in\n    tag_194:\n        /* \"#utility.yul\":6826:6855   */\n      tag_195\n        /* \"#utility.yul\":6848:6854   */\n      dup2\n        /* \"#utility.yul\":6826:6855   */\n      tag_77\n      jump\t// in\n    tag_195:\n        /* \"#utility.yul\":6821:6824   */\n      dup5\n        /* \"#utility.yul\":6817:6856   */\n      add\n        /* \"#utility.yul\":6810:6856   */\n      swap2\n      pop\n        /* \"#utility.yul\":6577:6862   */\n      pop\n        /* \"#utility.yul\":6485:6862   */\n      swap3\n      swap2\n      pop\n      pop\n      jump\t// out\n        /* \"#utility.yul\":6868:7181   */\n    tag_21:\n        /* \"#utility.yul\":6981:6985   */\n      0x00\n        /* \"#utility.yul\":7019:7021   */\n      0x20\n        /* \"#utility.yul\":7008:7017   */\n      dup3\n        /* \"#utility.yul\":7004:7022   */\n      add\n        /* \"#utility.yul\":6996:7022   */\n      swap1\n      pop\n        /* \"#utility.yul\":7068:7077   */\n      dup2\n        /* \"#utility.yul\":7062:7066   */\n      dup2\n        /* \"#utility.yul\":7058:7078   */\n      sub\n        /* \"#utility.yul\":7054:7055   */\n      0x00\n        /* \"#utility.yul\":7043:7052   */\n      dup4\n        /* \"#utility.yul\":7039:7056   */\n      add\n        /* \"#utility.yul\":7032:7079   */\n      mstore\n        /* \"#utility.yul\":7096:7174   */\n      tag_197\n        /* \"#utility.yul\":7169:7173   */\n      dup2\n        /* \"#utility.yul\":7160:7166   */\n      dup5\n        /* \"#utility.yul\":7096:7174   */\n      tag_95\n      jump\t// in\n    tag_197:\n        /* \"#utility.yul\":7088:7174   */\n      swap1\n      pop\n        /* \"#utility.yul\":6868:7181   */\n      swap3\n      swap2\n      pop\n      pop\n      jump\t// out\n        /* \"#utility.yul\":7187:7304   */\n    tag_96:\n        /* \"#utility.yul\":7296:7297   */\n      0x00\n        /* \"#utility.yul\":7293:7294   */\n      dup1\n        /* \"#utility.yul\":7286:7298   */\n      revert\n        /* \"#utility.yul\":7310:7427   */\n    tag_97:\n        /* \"#utility.yul\":7419:7420   */\n      0x00\n        /* \"#utility.yul\":7416:7417   */\n      dup1\n        /* \"#utility.yul\":7409:7421   */\n      revert\n        /* \"#utility.yul\":7433:7613   */\n    tag_98:\n        /* \"#utility.yul\":7481:7558   */\n      0x4e487b7100000000000000000000000000000000000000000000000000000000\n        /* \"#utility.yul\":7478:7479   */\n      0x00\n        /* \"#utility.yul\":7471:7559   */\n      mstore\n        /* \"#utility.yul\":7578:7582   */\n      0x41\n        /* \"#utility.yul\":7575:7576   */\n      0x04\n        /* \"#utility.yul\":7568:7583   */\n      mstore\n        /* \"#utility.yul\":7602:7606   */\n      0x24\n        /* \"#utility.yul\":7599:7600   */\n      0x00\n        /* \"#utility.yul\":7592:7607   */\n      revert\n        /* \"#utility.yul\":7619:7900   */\n    tag_99:\n        /* \"#utility.yul\":7702:7729   */\n      tag_202\n        /* \"#utility.yul\":7724:7728   */\n      dup3\n        /* \"#utility.yul\":7702:7729   */\n      tag_77\n      jump\t// in\n    tag_202:\n        /* \"#utility.yul\":7694:7700   */\n      dup2\n        /* \"#utility.yul\":7690:7730   */\n      add\n        /* \"#utility.yul\":7832:7838   */\n      dup2\n        /* \"#utility.yul\":7820:7830   */\n      dup2\n        /* \"#utility.yul\":7817:7839   */\n      lt\n        /* \"#utility.yul\":7796:7814   */\n      0xffffffffffffffff\n        /* \"#utility.yul\":7784:7794   */\n      dup3\n        /* \"#utility.yul\":7781:7815   */\n      gt\n        /* \"#utility.yul\":7778:7840   */\n      or\n        /* \"#utility.yul\":7775:7863   */\n      iszero\n      tag_203\n      jumpi\n        /* \"#utility.yul\":7843:7861   */\n      tag_204\n      tag_98\n      jump\t// in\n    tag_204:\n        /* \"#utility.yul\":7775:7863   */\n    tag_203:\n        /* \"#utility.yul\":7883:7893   */\n      dup1\n        /* \"#utility.yul\":7879:7881   */\n      0x40\n        /* \"#utility.yul\":7872:7894   */\n      mstore\n        /* \"#utility.yul\":7662:7900   */\n      pop\n        /* \"#utility.yul\":7619:7900   */\n      pop\n      pop\n      jump\t// out\n        /* \"#utility.yul\":7906:8035   */\n    tag_100:\n        /* \"#utility.yul\":7940:7946   */\n      0x00\n        /* \"#utility.yul\":7967:7987   */\n      tag_206\n      tag_82\n      jump\t// in\n    tag_206:\n        /* \"#utility.yul\":7957:7987   */\n      swap1\n      pop\n        /* \"#utility.yul\":7996:8029   */\n      tag_207\n        /* \"#utility.yul\":8024:8028   */\n      dup3\n        /* \"#utility.yul\":8016:8022   */\n      dup3\n        /* \"#utility.yul\":7996:8029   */\n      tag_99\n      jump\t// in\n    tag_207:\n        /* \"#utility.yul\":7906:8035   */\n      swap2\n      swap1\n      pop\n      jump\t// out\n        /* \"#utility.yul\":8041:8349   */\n    tag_101:\n        /* \"#utility.yul\":8103:8107   */\n      0x00\n        /* \"#utility.yul\":8193:8211   */\n      0xffffffffffffffff\n        /* \"#utility.yul\":8185:8191   */\n      dup3\n        /* \"#utility.yul\":8182:8212   */\n      gt\n        /* \"#utility.yul\":8179:8235   */\n      iszero\n      tag_209\n      jumpi\n        /* \"#utility.yul\":8215:8233   */\n      tag_210\n      tag_98\n      jump\t// in\n    tag_210:\n        /* \"#utility.yul\":8179:8235   */\n    tag_209:\n        /* \"#utility.yul\":8253:8282   */\n      tag_211\n        /* \"#utility.yul\":8275:8281   */\n      dup3\n        /* \"#utility.yul\":8253:8282   */\n      tag_77\n      jump\t// in\n    tag_211:\n        /* \"#utility.yul\":8245:8282   */\n      swap1\n      pop\n        /* \"#utility.yul\":8337:8341   */\n      0x20\n        /* \"#utility.yul\":8331:8335   */\n      dup2\n        /* \"#utility.yul\":8327:8342   */\n      add\n        /* \"#utility.yul\":8319:8342   */\n      swap1\n      pop\n        /* \"#utility.yul\":8041:8349   */\n      swap2\n      swap1\n      pop\n      jump\t// out\n        /* \"#utility.yul\":8355:8501   */\n    tag_102:\n        /* \"#utility.yul\":8452:8458   */\n      dup3\n        /* \"#utility.yul\":8447:8450   */\n      dup2\n        /* \"#utility.yul\":8442:8445   */\n      dup4\n        /* \"#utility.yul\":8429:8459   */\n      calldatacopy\n        /* \"#utility.yul\":8493:8494   */\n      0x00\n        /* \"#utility.yul\":8484:8490   */\n      dup4\n        /* \"#utility.yul\":8479:8482   */\n      dup4\n        /* \"#utility.yul\":8475:8491   */\n      add\n        /* \"#utility.yul\":8468:8495   */\n      mstore\n        /* \"#utility.yul\":8355:8501   */\n      pop\n      pop\n      pop\n      jump\t// out\n        /* \"#utility.yul\":8507:8932   */\n    tag_103:\n        /* \"#utility.yul\":8585:8590   */\n      0x00\n        /* \"#utility.yul\":8610:8676   */\n      tag_214\n        /* \"#utility.yul\":8626:8675   */\n      tag_215\n        /* \"#utility.yul\":8668:8674   */\n      dup5\n        /* \"#utility.yul\":8626:8675   */\n      tag_101\n      jump\t// in\n    tag_215:\n        /* \"#utility.yul\":8610:8676   */\n      tag_100\n      jump\t// in\n    tag_214:\n        /* \"#utility.yul\":8601:8676   */\n      swap1\n      pop\n        /* \"#utility.yul\":8699:8705   */\n      dup3\n        /* \"#utility.yul\":8692:8697   */\n      dup2\n        /* \"#utility.yul\":8685:8706   */\n      mstore\n        /* \"#utility.yul\":8737:8741   */\n      0x20\n        /* \"#utility.yul\":8730:8735   */\n      dup2\n        /* \"#utility.yul\":8726:8742   */\n      add\n        /* \"#utility.yul\":8775:8778   */\n      dup5\n        /* \"#utility.yul\":8766:8772   */\n      dup5\n        /* \"#utility.yul\":8761:8764   */\n      dup5\n        /* \"#utility.yul\":8757:8773   */\n      add\n        /* \"#utility.yul\":8754:8779   */\n      gt\n        /* \"#utility.yul\":8751:8863   */\n      iszero\n      tag_216\n      jumpi\n        /* \"#utility.yul\":8782:8861   */\n      tag_217\n      tag_97\n      jump\t// in\n    tag_217:\n        /* \"#utility.yul\":8751:8863   */\n    tag_216:\n        /* \"#utility.yul\":8872:8926   */\n      tag_218\n        /* \"#utility.yul\":8919:8925   */\n      dup5\n        /* \"#utility.yul\":8914:8917   */\n      dup3\n        /* \"#utility.yul\":8909:8912   */\n      dup6\n        /* \"#utility.yul\":8872:8926   */\n      tag_102\n      jump\t// in\n    tag_218:\n        /* \"#utility.yul\":8591:8932   */\n      pop\n        /* \"#utility.yul\":8507:8932   */\n      swap4\n      swap3\n      pop\n      pop\n      pop\n      jump\t// out\n        /* \"#utility.yul\":8952:9292   */\n    tag_104:\n        /* \"#utility.yul\":9008:9013   */\n      0x00\n        /* \"#utility.yul\":9057:9060   */\n      dup3\n        /* \"#utility.yul\":9050:9054   */\n      0x1f\n        /* \"#utility.yul\":9042:9048   */\n      dup4\n        /* \"#utility.yul\":9038:9055   */\n      add\n        /* \"#utility.yul\":9034:9061   */\n      slt\n        /* \"#utility.yul\":9024:9146   */\n      tag_220\n      jumpi\n        /* \"#utility.yul\":9065:9144   */\n      tag_221\n      tag_96\n      jump\t// in\n    tag_221:\n        /* \"#utility.yul\":9024:9146   */\n    tag_220:\n        /* \"#utility.yul\":9182:9188   */\n      dup2\n        /* \"#utility.yul\":9169:9189   */\n      calldataload\n        /* \"#utility.yul\":9207:9286   */\n      tag_222\n        /* \"#utility.yul\":9282:9285   */\n      dup5\n        /* \"#utility.yul\":9274:9280   */\n      dup3\n        /* \"#utility.yul\":9267:9271   */\n      0x20\n        /* \"#utility.yul\":9259:9265   */\n      dup7\n        /* \"#utility.yul\":9255:9272   */\n      add\n        /* \"#utility.yul\":9207:9286   */\n      tag_103\n      jump\t// in\n    tag_222:\n        /* \"#utility.yul\":9198:9286   */\n      swap2\n      pop\n        /* \"#utility.yul\":9014:9292   */\n      pop\n        /* \"#utility.yul\":8952:9292   */\n      swap3\n      swap2\n      pop\n      pop\n      jump\t// out\n        /* \"#utility.yul\":9298:9409   */\n    tag_105:\n        /* \"#utility.yul\":9383:9384   */\n      0x04\n        /* \"#utility.yul\":9376:9381   */\n      dup2\n        /* \"#utility.yul\":9373:9385   */\n      lt\n        /* \"#utility.yul\":9363:9403   */\n      tag_224\n      jumpi\n        /* \"#utility.yul\":9399:9400   */\n      0x00\n        /* \"#utility.yul\":9396:9397   */\n      dup1\n        /* \"#utility.yul\":9389:9401   */\n      revert\n        /* \"#utility.yul\":9363:9403   */\n    tag_224:\n        /* \"#utility.yul\":9298:9409   */\n      pop\n      jump\t// out\n        /* \"#utility.yul\":9415:9578   */\n    tag_106:\n        /* \"#utility.yul\":9473:9478   */\n      0x00\n        /* \"#utility.yul\":9511:9517   */\n      dup2\n        /* \"#utility.yul\":9498:9518   */\n      calldataload\n        /* \"#utility.yul\":9489:9518   */\n      swap1\n      pop\n        /* \"#utility.yul\":9527:9572   */\n      tag_226\n        /* \"#utility.yul\":9566:9571   */\n      dup2\n        /* \"#utility.yul\":9527:9572   */\n      tag_105\n      jump\t// in\n    tag_226:\n        /* \"#utility.yul\":9415:9578   */\n      swap3\n      swap2\n      pop\n      pop\n      jump\t// out\n        /* \"#utility.yul\":9584:10262   */\n    tag_24:\n        /* \"#utility.yul\":9674:9680   */\n      0x00\n        /* \"#utility.yul\":9682:9688   */\n      dup1\n        /* \"#utility.yul\":9731:9733   */\n      0x40\n        /* \"#utility.yul\":9719:9728   */\n      dup4\n        /* \"#utility.yul\":9710:9717   */\n      dup6\n        /* \"#utility.yul\":9706:9729   */\n      sub\n        /* \"#utility.yul\":9702:9734   */\n      slt\n        /* \"#utility.yul\":9699:9818   */\n      iszero\n      tag_228\n      jumpi\n        /* \"#utility.yul\":9737:9816   */\n      tag_229\n      tag_83\n      jump\t// in\n    tag_229:\n        /* \"#utility.yul\":9699:9818   */\n    tag_228:\n        /* \"#utility.yul\":9885:9886   */\n      0x00\n        /* \"#utility.yul\":9874:9883   */\n      dup4\n        /* \"#utility.yul\":9870:9887   */\n      add\n        /* \"#utility.yul\":9857:9888   */\n      calldataload\n        /* \"#utility.yul\":9915:9933   */\n      0xffffffffffffffff\n        /* \"#utility.yul\":9907:9913   */\n      dup2\n        /* \"#utility.yul\":9904:9934   */\n      gt\n        /* \"#utility.yul\":9901:10018   */\n      iszero\n      tag_230\n      jumpi\n        /* \"#utility.yul\":9937:10016   */\n      tag_231\n      tag_84\n      jump\t// in\n    tag_231:\n        /* \"#utility.yul\":9901:10018   */\n    tag_230:\n        /* \"#utility.yul\":10042:10105   */\n      tag_232\n        /* \"#utility.yul\":10097:10104   */\n      dup6\n        /* \"#utility.yul\":10088:10094   */\n      dup3\n        /* \"#utility.yul\":10077:10086   */\n      dup7\n        /* \"#utility.yul\":10073:10095   */\n      add\n        /* \"#utility.yul\":10042:10105   */\n      tag_104\n      jump\t// in\n    tag_232:\n        /* \"#utility.yul\":10032:10105   */\n      swap3\n      pop\n        /* \"#utility.yul\":9828:10115   */\n      pop\n        /* \"#utility.yul\":10154:10156   */\n      0x20\n        /* \"#utility.yul\":10180:10245   */\n      tag_233\n        /* \"#utility.yul\":10237:10244   */\n      dup6\n        /* \"#utility.yul\":10228:10234   */\n      dup3\n        /* \"#utility.yul\":10217:10226   */\n      dup7\n        /* \"#utility.yul\":10213:10235   */\n      add\n        /* \"#utility.yul\":10180:10245   */\n      tag_106\n      jump\t// in\n    tag_233:\n        /* \"#utility.yul\":10170:10245   */\n      swap2\n      pop\n        /* \"#utility.yul\":10125:10255   */\n      pop\n        /* \"#utility.yul\":9584:10262   */\n      swap3\n      pop\n      swap3\n      swap1\n      pop\n      jump\t// out\n        /* \"#utility.yul\":10268:10358   */\n    tag_107:\n        /* \"#utility.yul\":10302:10309   */\n      0x00\n        /* \"#utility.yul\":10345:10350   */\n      dup2\n        /* \"#utility.yul\":10338:10351   */\n      iszero\n        /* \"#utility.yul\":10331:10352   */\n      iszero\n        /* \"#utility.yul\":10320:10352   */\n      swap1\n      pop\n        /* \"#utility.yul\":10268:10358   */\n      swap2\n      swap1\n      pop\n      jump\t// out\n        /* \"#utility.yul\":10364:10473   */\n    tag_108:\n        /* \"#utility.yul\":10445:10466   */\n      tag_236\n        /* \"#utility.yul\":10460:10465   */\n      dup2\n        /* \"#utility.yul\":10445:10466   */\n      tag_107\n      jump\t// in\n    tag_236:\n        /* \"#utility.yul\":10440:10443   */\n      dup3\n        /* \"#utility.yul\":10433:10467   */\n      mstore\n        /* \"#utility.yul\":10364:10473   */\n      pop\n      pop\n      jump\t// out\n        /* \"#utility.yul\":10479:10689   */\n    tag_27:\n        /* \"#utility.yul\":10566:10570   */\n      0x00\n        /* \"#utility.yul\":10604:10606   */\n      0x20\n        /* \"#utility.yul\":10593:10602   */\n      dup3\n        /* \"#utility.yul\":10589:10607   */\n      add\n        /* \"#utility.yul\":10581:10607   */\n      swap1\n      pop\n        /* \"#utility.yul\":10617:10682   */\n      tag_238\n        /* \"#utility.yul\":10679:10680   */\n      0x00\n        /* \"#utility.yul\":10668:10677   */\n      dup4\n        /* \"#utility.yul\":10664:10681   */\n      add\n        /* \"#utility.yul\":10655:10661   */\n      dup5\n        /* \"#utility.yul\":10617:10682   */\n      tag_108\n      jump\t// in\n    tag_238:\n        /* \"#utility.yul\":10479:10689   */\n      swap3\n      swap2\n      pop\n      pop\n      jump\t// out\n        /* \"#utility.yul\":10695:10875   */\n    tag_109:\n        /* \"#utility.yul\":10743:10820   */\n      0x4e487b7100000000000000000000000000000000000000000000000000000000\n        /* \"#utility.yul\":10740:10741   */\n      0x00\n        /* \"#utility.yul\":10733:10821   */\n      mstore\n        /* \"#utility.yul\":10840:10844   */\n      0x22\n        /* \"#utility.yul\":10837:10838   */\n      0x04\n        /* \"#utility.yul\":10830:10845   */\n      mstore\n        /* \"#utility.yul\":10864:10868   */\n      0x24\n        /* \"#utility.yul\":10861:10862   */\n      0x00\n        /* \"#utility.yul\":10854:10869   */\n      revert\n        /* \"#utility.yul\":10881:11201   */\n    tag_33:\n        /* \"#utility.yul\":10925:10931   */\n      0x00\n        /* \"#utility.yul\":10962:10963   */\n      0x02\n        /* \"#utility.yul\":10956:10960   */\n      dup3\n        /* \"#utility.yul\":10952:10964   */\n      div\n        /* \"#utility.yul\":10942:10964   */\n      swap1\n      pop\n        /* \"#utility.yul\":11009:11010   */\n      0x01\n        /* \"#utility.yul\":11003:11007   */\n      dup3\n        /* \"#utility.yul\":10999:11011   */\n      and\n        /* \"#utility.yul\":11030:11048   */\n      dup1\n        /* \"#utility.yul\":11020:11101   */\n      tag_241\n      jumpi\n        /* \"#utility.yul\":11086:11090   */\n      0x7f\n        /* \"#utility.yul\":11078:11084   */\n      dup3\n        /* \"#utility.yul\":11074:11091   */\n      and\n        /* \"#utility.yul\":11064:11091   */\n      swap2\n      pop\n        /* \"#utility.yul\":11020:11101   */\n    tag_241:\n        /* \"#utility.yul\":11148:11150   */\n      0x20\n        /* \"#utility.yul\":11140:11146   */\n      dup3\n        /* \"#utility.yul\":11137:11151   */\n      lt\n        /* \"#utility.yul\":11117:11135   */\n      dup2\n        /* \"#utility.yul\":11114:11152   */\n      sub\n        /* \"#utility.yul\":11111:11195   */\n      tag_242\n      jumpi\n        /* \"#utility.yul\":11167:11185   */\n      tag_243\n      tag_109\n      jump\t// in\n    tag_243:\n        /* \"#utility.yul\":11111:11195   */\n    tag_242:\n        /* \"#utility.yul\":10932:11201   */\n      pop\n        /* \"#utility.yul\":10881:11201   */\n      swap2\n      swap1\n      pop\n      jump\t// out\n        /* \"#utility.yul\":11207:11348   */\n    tag_110:\n        /* \"#utility.yul\":11256:11260   */\n      0x00\n        /* \"#utility.yul\":11279:11282   */\n      dup2\n        /* \"#utility.yul\":11271:11282   */\n      swap1\n      pop\n        /* \"#utility.yul\":11302:11305   */\n      dup2\n        /* \"#utility.yul\":11299:11300   */\n      0x00\n        /* \"#utility.yul\":11292:11306   */\n      mstore\n        /* \"#utility.yul\":11336:11340   */\n      0x20\n        /* \"#utility.yul\":11333:11334   */\n      0x00\n        /* \"#utility.yul\":11323:11341   */\n      keccak256\n        /* \"#utility.yul\":11315:11341   */\n      swap1\n      pop\n        /* \"#utility.yul\":11207:11348   */\n      swap2\n      swap1\n      pop\n      jump\t// out\n        /* \"#utility.yul\":11354:11447   */\n    tag_111:\n        /* \"#utility.yul\":11391:11397   */\n      0x00\n        /* \"#utility.yul\":11438:11440   */\n      0x20\n        /* \"#utility.yul\":11433:11435   */\n      0x1f\n        /* \"#utility.yul\":11426:11431   */\n      dup4\n        /* \"#utility.yul\":11422:11436   */\n      add\n        /* \"#utility.yul\":11418:11441   */\n      div\n        /* \"#utility.yul\":11408:11441   */\n      swap1\n      pop\n        /* \"#utility.yul\":11354:11447   */\n      swap2\n      swap1\n      pop\n      jump\t// out\n        /* \"#utility.yul\":11453:11560   */\n    tag_112:\n        /* \"#utility.yul\":11497:11505   */\n      0x00\n        /* \"#utility.yul\":11547:11552   */\n      dup3\n        /* \"#utility.yul\":11541:11545   */\n      dup3\n        /* \"#utility.yul\":11537:11553   */\n      shl\n        /* \"#utility.yul\":11516:11553   */\n      swap1\n      pop\n        /* \"#utility.yul\":11453:11560   */\n      swap3\n      swap2\n      pop\n      pop\n      jump\t// out\n        /* \"#utility.yul\":11566:11959   */\n    tag_113:\n        /* \"#utility.yul\":11635:11641   */\n      0x00\n        /* \"#utility.yul\":11685:11686   */\n      0x08\n        /* \"#utility.yul\":11673:11683   */\n      dup4\n        /* \"#utility.yul\":11669:11687   */\n      mul\n        /* \"#utility.yul\":11708:11805   */\n      tag_248\n        /* \"#utility.yul\":11738:11804   */\n      0xffffffffffffffffffffffffffffffffffffffffffffffffffffffffffffffff\n        /* \"#utility.yul\":11727:11736   */\n      dup3\n        /* \"#utility.yul\":11708:11805   */\n      tag_112\n      jump\t// in\n    tag_248:\n        /* \"#utility.yul\":11826:11865   */\n      tag_249\n        /* \"#utility.yul\":11856:11864   */\n      dup7\n        /* \"#utility.yul\":11845:11854   */\n      dup4\n        /* \"#utility.yul\":11826:11865   */\n      tag_112\n      jump\t// in\n    tag_249:\n        /* \"#utility.yul\":11814:11865   */\n      swap6\n      pop\n        /* \"#utility.yul\":11898:11902   */\n      dup1\n        /* \"#utility.yul\":11894:11903   */\n      not\n        /* \"#utility.yul\":11887:11892   */\n      dup5\n        /* \"#utility.yul\":11883:11904   */\n      and\n        /* \"#utility.yul\":11874:11904   */\n      swap4\n      pop\n        /* \"#utility.yul\":11947:11951   */\n      dup1\n        /* \"#utility.yul\":11937:11945   */\n      dup7\n        /* \"#utility.yul\":11933:11952   */\n      and\n        /* \"#utility.yul\":11926:11931   */\n      dup5\n        /* \"#utility.yul\":11923:11953   */\n      or\n        /* \"#utility.yul\":11913:11953   */\n      swap3\n      pop\n        /* \"#utility.yul\":11642:11959   */\n      pop\n      pop\n        /* \"#utility.yul\":11566:11959   */\n      swap4\n      swap3\n      pop\n      pop\n      pop\n      jump\t// out\n        /* \"#utility.yul\":11965:12042   */\n    tag_114:\n        /* \"#utility.yul\":12002:12009   */\n      0x00\n        /* \"#utility.yul\":12031:12036   */\n      dup2\n        /* \"#utility.yul\":12020:12036   */\n      swap1\n      pop\n        /* \"#utility.yul\":11965:12042   */\n      swap2\n      swap1\n      pop\n      jump\t// out\n        /* \"#utility.yul\":12048:12108   */\n    tag_115:\n        /* \"#utility.yul\":12076:12079   */\n      0x00\n        /* \"#utility.yul\":12097:12102   */\n      dup2\n        /* \"#utility.yul\":12090:12102   */\n      swap1\n      pop\n        /* \"#utility.yul\":12048:12108   */\n      swap2\n      swap1\n      pop\n      jump\t// out\n        /* \"#utility.yul\":12114:12256   */\n    tag_116:\n        /* \"#utility.yul\":12164:12173   */\n      0x00\n        /* \"#utility.yul\":12197:12250   */\n      tag_253\n        /* \"#utility.yul\":12215:12249   */\n      tag_254\n        /* \"#utility.yul\":12224:12248   */\n      tag_255\n        /* \"#utility.yul\":12242:12247   */\n      dup5\n        /* \"#utility.yul\":12224:12248   */\n      tag_114\n      jump\t// in\n    tag_255:\n        /* \"#utility.yul\":12215:12249   */\n      tag_115\n      jump\t// in\n    tag_254:\n        /* \"#utility.yul\":12197:12250   */\n      tag_114\n      jump\t// in\n    tag_253:\n        /* \"#utility.yul\":12184:12250   */\n      swap1\n      pop\n        /* \"#utility.yul\":12114:12256   */\n      swap2\n      swap1\n      pop\n      jump\t// out\n        /* \"#utility.yul\":12262:12337   */\n    tag_117:\n        /* \"#utility.yul\":12305:12308   */\n      0x00\n        /* \"#utility.yul\":12326:12331   */\n      dup2\n        /* \"#utility.yul\":12319:12331   */\n      swap1\n      pop\n        /* \"#utility.yul\":12262:12337   */\n      swap2\n      swap1\n      pop\n      jump\t// out\n        /* \"#utility.yul\":12343:12612   */\n    tag_118:\n        /* \"#utility.yul\":12453:12492   */\n      tag_258\n        /* \"#utility.yul\":12484:12491   */\n      dup4\n        /* \"#utility.yul\":12453:12492   */\n      tag_116\n      jump\t// in\n    tag_258:\n        /* \"#utility.yul\":12514:12605   */\n      tag_259\n        /* \"#utility.yul\":12563:12604   */\n      tag_260\n        /* \"#utility.yul\":12587:12603   */\n      dup3\n        /* \"#utility.yul\":12563:12604   */\n      tag_117\n      jump\t// in\n    tag_260:\n        /* \"#utility.yul\":12555:12561   */\n      dup5\n        /* \"#utility.yul\":12548:12552   */\n      dup5\n        /* \"#utility.yul\":12542:12553   */\n      sload\n        /* \"#utility.yul\":12514:12605   */\n      tag_113\n      jump\t// in\n    tag_259:\n        /* \"#utility.yul\":12508:12512   */\n      dup3\n        /* \"#utility.yul\":12501:12606   */\n      sstore\n        /* \"#utility.yul\":12419:12612   */\n      pop\n        /* \"#utility.yul\":12343:12612   */\n      pop\n      pop\n      pop\n      jump\t// out\n        /* \"#utility.yul\":12618:12691   */\n    tag_119:\n        /* \"#utility.yul\":12663:12666   */\n      0x00\n        /* \"#utility.yul\":12618:12691   */\n      swap1\n      jump\t// out\n        /* \"#utility.yul\":12697:12886   */\n    tag_120:\n        /* \"#utility.yul\":12774:12806   */\n      tag_263\n      tag_119\n      jump\t// in\n    tag_263:\n        /* \"#utility.yul\":12815:12880   */\n      tag_264\n        /* \"#utility.yul\":12873:12879   */\n      dup2\n        /* \"#utility.yul\":12865:12871   */\n      dup5\n        /* \"#utility.yul\":12859:12863   */\n      dup5\n        /* \"#utility.yul\":12815:12880   */\n      tag_118\n      jump\t// in\n    tag_264:\n        /* \"#utility.yul\":12750:12886   */\n      pop\n        /* \"#utility.yul\":12697:12886   */\n      pop\n      pop\n      jump\t// out\n        /* \"#utility.yul\":12892:13078   */\n    tag_121:\n        /* \"#utility.yul\":12952:13072   */\n    tag_266:\n        /* \"#utility.yul\":12969:12972   */\n      dup2\n        /* \"#utility.yul\":12962:12967   */\n      dup2\n        /* \"#utility.yul\":12959:12973   */\n      lt\n        /* \"#utility.yul\":12952:13072   */\n      iszero\n      tag_268\n      jumpi\n        /* \"#utility.yul\":13023:13062   */\n      tag_269\n        /* \"#utility.yul\":13060:13061   */\n      0x00\n        /* \"#utility.yul\":13053:13058   */\n      dup3\n        /* \"#utility.yul\":13023:13062   */\n      tag_120\n      jump\t// in\n    tag_269:\n        /* \"#utility.yul\":12996:12997   */\n      0x01\n        /* \"#utility.yul\":12989:12994   */\n      dup2\n        /* \"#utility.yul\":12985:12998   */\n      add\n        /* \"#utility.yul\":12976:12998   */\n      swap1\n      pop\n        /* \"#utility.yul\":12952:13072   */\n      jump(tag_266)\n    tag_268:\n        /* \"#utility.yul\":12892:13078   */\n      pop\n      pop\n      jump\t// out\n        /* \"#utility.yul\":13084:13627   */\n    tag_122:\n        /* \"#utility.yul\":13185:13187   */\n      0x1f\n        /* \"#utility.yul\":13180:13183   */\n      dup3\n        /* \"#utility.yul\":13177:13188   */\n      gt\n        /* \"#utility.yul\":13174:13620   */\n      iszero\n      tag_271\n      jumpi\n        /* \"#utility.yul\":13219:13257   */\n      tag_272\n        /* \"#utility.yul\":13251:13256   */\n      dup2\n        /* \"#utility.yul\":13219:13257   */\n      tag_110\n      jump\t// in\n    tag_272:\n        /* \"#utility.yul\":13303:13332   */\n      tag_273\n        /* \"#utility.yul\":13321:13331   */\n      dup5\n        /* \"#utility.yul\":13303:13332   */\n      tag_111\n      jump\t// in\n    tag_273:\n        /* \"#utility.yul\":13293:13301   */\n      dup2\n        /* \"#utility.yul\":13289:13333   */\n      add\n        /* \"#utility.yul\":13486:13488   */\n      0x20\n        /* \"#utility.yul\":13474:13484   */\n      dup6\n        /* \"#utility.yul\":13471:13489   */\n      lt\n        /* \"#utility.yul\":13468:13517   */\n      iszero\n      tag_274\n      jumpi\n        /* \"#utility.yul\":13507:13515   */\n      dup2\n        /* \"#utility.yul\":13492:13515   */\n      swap1\n      pop\n        /* \"#utility.yul\":13468:13517   */\n    tag_274:\n        /* \"#utility.yul\":13530:13610   */\n      tag_275\n        /* \"#utility.yul\":13586:13608   */\n      tag_276\n        /* \"#utility.yul\":13604:13607   */\n      dup6\n        /* \"#utility.yul\":13586:13608   */\n      tag_111\n      jump\t// in\n    tag_276:\n        /* \"#utility.yul\":13576:13584   */\n      dup4\n        /* \"#utility.yul\":13572:13609   */\n      add\n        /* \"#utility.yul\":13559:13570   */\n      dup3\n        /* \"#utility.yul\":13530:13610   */\n      tag_121\n      jump\t// in\n    tag_275:\n        /* \"#utility.yul\":13189:13620   */\n      pop\n      pop\n        /* \"#utility.yul\":13174:13620   */\n    tag_271:\n        /* \"#utility.yul\":13084:13627   */\n      pop\n      pop\n      pop\n      jump\t// out\n        /* \"#utility.yul\":13633:13750   */\n    tag_123:\n        /* \"#utility.yul\":13687:13695   */\n      0x00\n        /* \"#utility.yul\":13737:13742   */\n      dup3\n        /* \"#utility.yul\":13731:13735   */\n      dup3\n        /* \"#utility.yul\":13727:13743   */\n      shr\n        /* \"#utility.yul\":13706:13743   */\n      swap1\n      pop\n        /* \"#utility.yul\":13633:13750   */\n      swap3\n      swap2\n      pop\n      pop\n      jump\t// out\n        /* \"#utility.yul\":13756:13925   */\n    tag_124:\n        /* \"#utility.yul\":13800:13806   */\n      0x00\n        /* \"#utility.yul\":13833:13884   */\n      tag_279\n        /* \"#utility.yul\":13881:13882   */\n      0x00\n        /* \"#utility.yul\":13877:13883   */\n      not\n        /* \"#utility.yul\":13869:13874   */\n      dup5\n        /* \"#utility.yul\":13866:13867   */\n      0x08\n        /* \"#utility.yul\":13862:13875   */\n      mul\n        /* \"#utility.yul\":13833:13884   */\n      tag_123\n      jump\t// in\n    tag_279:\n        /* \"#utility.yul\":13829:13885   */\n      not\n        /* \"#utility.yul\":13914:13918   */\n      dup1\n        /* \"#utility.yul\":13908:13912   */\n      dup4\n        /* \"#utility.yul\":13904:13919   */\n      and\n        /* \"#utility.yul\":13894:13919   */\n      swap2\n      pop\n        /* \"#utility.yul\":13807:13925   */\n      pop\n        /* \"#utility.yul\":13756:13925   */\n      swap3\n      swap2\n      pop\n      pop\n      jump\t// out\n        /* \"#utility.yul\":13930:14225   */\n    tag_125:\n        /* \"#utility.yul\":14006:14010   */\n      0x00\n        /* \"#utility.yul\":14152:14181   */\n      tag_281\n        /* \"#utility.yul\":14177:14180   */\n      dup4\n        /* \"#utility.yul\":14171:14175   */\n      dup4\n        /* \"#utility.yul\":14152:14181   */\n      tag_124\n      jump\t// in\n    tag_281:\n        /* \"#utility.yul\":14144:14181   */\n      swap2\n      pop\n        /* \"#utility.yul\":14214:14217   */\n      dup3\n        /* \"#utility.yul\":14211:14212   */\n      0x02\n        /* \"#utility.yul\":14207:14218   */\n      mul\n        /* \"#utility.yul\":14201:14205   */\n      dup3\n        /* \"#utility.yul\":14198:14219   */\n      or\n        /* \"#utility.yul\":14190:14219   */\n      swap1\n      pop\n        /* \"#utility.yul\":13930:14225   */\n      swap3\n      swap2\n      pop\n      pop\n      jump\t// out\n        /* \"#utility.yul\":14230:15625   */\n    tag_61:\n        /* \"#utility.yul\":14347:14384   */\n      tag_283\n        /* \"#utility.yul\":14380:14383   */\n      dup3\n        /* \"#utility.yul\":14347:14384   */\n      tag_74\n      jump\t// in\n    tag_283:\n        /* \"#utility.yul\":14449:14467   */\n      0xffffffffffffffff\n        /* \"#utility.yul\":14441:14447   */\n      dup2\n        /* \"#utility.yul\":14438:14468   */\n      gt\n        /* \"#utility.yul\":14435:14491   */\n      iszero\n      tag_284\n      jumpi\n        /* \"#utility.yul\":14471:14489   */\n      tag_285\n      tag_98\n      jump\t// in\n    tag_285:\n        /* \"#utility.yul\":14435:14491   */\n    tag_284:\n        /* \"#utility.yul\":14515:14553   */\n      tag_286\n        /* \"#utility.yul\":14547:14551   */\n      dup3\n        /* \"#utility.yul\":14541:14552   */\n      sload\n        /* \"#utility.yul\":14515:14553   */\n      tag_33\n      jump\t// in\n    tag_286:\n        /* \"#utility.yul\":14600:14667   */\n      tag_287\n        /* \"#utility.yul\":14660:14666   */\n      dup3\n        /* \"#utility.yul\":14652:14658   */\n      dup3\n        /* \"#utility.yul\":14646:14650   */\n      dup6\n        /* \"#utility.yul\":14600:14667   */\n      tag_122\n      jump\t// in\n    tag_287:\n        /* \"#utility.yul\":14694:14695   */\n      0x00\n        /* \"#utility.yul\":14718:14722   */\n      0x20\n        /* \"#utility.yul\":14705:14722   */\n      swap1\n      pop\n        /* \"#utility.yul\":14750:14752   */\n      0x1f\n        /* \"#utility.yul\":14742:14748   */\n      dup4\n        /* \"#utility.yul\":14739:14753   */\n      gt\n        /* \"#utility.yul\":14767:14768   */\n      0x01\n        /* \"#utility.yul\":14762:15380   */\n      dup2\n      eq\n      tag_289\n      jumpi\n        /* \"#utility.yul\":15424:15425   */\n      0x00\n        /* \"#utility.yul\":15441:15447   */\n      dup5\n        /* \"#utility.yul\":15438:15515   */\n      iszero\n      tag_290\n      jumpi\n        /* \"#utility.yul\":15490:15499   */\n      dup3\n        /* \"#utility.yul\":15485:15488   */\n      dup8\n        /* \"#utility.yul\":15481:15500   */\n      add\n        /* \"#utility.yul\":15475:15501   */\n      mload\n        /* \"#utility.yul\":15466:15501   */\n      swap1\n      pop\n        /* \"#utility.yul\":15438:15515   */\n    tag_290:\n        /* \"#utility.yul\":15541:15608   */\n      tag_291\n        /* \"#utility.yul\":15601:15607   */\n      dup6\n        /* \"#utility.yul\":15594:15599   */\n      dup3\n        /* \"#utility.yul\":15541:15608   */\n      tag_125\n      jump\t// in\n    tag_291:\n        /* \"#utility.yul\":15535:15539   */\n      dup7\n        /* \"#utility.yul\":15528:15609   */\n      sstore\n        /* \"#utility.yul\":15397:15619   */\n      pop\n        /* \"#utility.yul\":14732:15619   */\n      jump(tag_288)\n        /* \"#utility.yul\":14762:15380   */\n    tag_289:\n        /* \"#utility.yul\":14814:14818   */\n      0x1f\n        /* \"#utility.yul\":14810:14819   */\n      not\n        /* \"#utility.yul\":14802:14808   */\n      dup5\n        /* \"#utility.yul\":14798:14820   */\n      and\n        /* \"#utility.yul\":14848:14885   */\n      tag_292\n        /* \"#utility.yul\":14880:14884   */\n      dup7\n        /* \"#utility.yul\":14848:14885   */\n      tag_110\n      jump\t// in\n    tag_292:\n        /* \"#utility.yul\":14907:14908   */\n      0x00\n        /* \"#utility.yul\":14921:15129   */\n    tag_293:\n        /* \"#utility.yul\":14935:14942   */\n      dup3\n        /* \"#utility.yul\":14932:14933   */\n      dup2\n        /* \"#utility.yul\":14929:14943   */\n      lt\n        /* \"#utility.yul\":14921:15129   */\n      iszero\n      tag_295\n      jumpi\n        /* \"#utility.yul\":15014:15023   */\n      dup5\n        /* \"#utility.yul\":15009:15012   */\n      dup10\n        /* \"#utility.yul\":15005:15024   */\n      add\n        /* \"#utility.yul\":14999:15025   */\n      mload\n        /* \"#utility.yul\":14991:14997   */\n      dup3\n        /* \"#utility.yul\":14984:15026   */\n      sstore\n        /* \"#utility.yul\":15065:15066   */\n      0x01\n        /* \"#utility.yul\":15057:15063   */\n      dup3\n        /* \"#utility.yul\":15053:15067   */\n      add\n        /* \"#utility.yul\":15043:15067   */\n      swap2\n      pop\n        /* \"#utility.yul\":15112:15114   */\n      0x20\n        /* \"#utility.yul\":15101:15110   */\n      dup6\n        /* \"#utility.yul\":15097:15115   */\n      add\n        /* \"#utility.yul\":15084:15115   */\n      swap5\n      pop\n        /* \"#utility.yul\":14958:14962   */\n      0x20\n        /* \"#utility.yul\":14955:14956   */\n      dup2\n        /* \"#utility.yul\":14951:14963   */\n      add\n        /* \"#utility.yul\":14946:14963   */\n      swap1\n      pop\n        /* \"#utility.yul\":14921:15129   */\n      jump(tag_293)\n    tag_295:\n        /* \"#utility.yul\":15157:15163   */\n      dup7\n        /* \"#utility.yul\":15148:15155   */\n      dup4\n        /* \"#utility.yul\":15145:15164   */\n      lt\n        /* \"#utility.yul\":15142:15321   */\n      iszero\n      tag_296\n      jumpi\n        /* \"#utility.yul\":15215:15224   */\n      dup5\n        /* \"#utility.yul\":15210:15213   */\n      dup10\n        /* \"#utility.yul\":15206:15225   */\n      add\n        /* \"#utility.yul\":15200:15226   */\n      mload\n        /* \"#utility.yul\":15258:15306   */\n      tag_297\n        /* \"#utility.yul\":15300:15304   */\n      0x1f\n        /* \"#utility.yul\":15292:15298   */\n      dup10\n        /* \"#utility.yul\":15288:15305   */\n      and\n        /* \"#utility.yul\":15277:15286   */\n      dup3\n        /* \"#utility.yul\":15258:15306   */\n      tag_124\n      jump\t// in\n    tag_297:\n        /* \"#utility.yul\":15250:15256   */\n      dup4\n        /* \"#utility.yul\":15243:15307   */\n      sstore\n        /* \"#utility.yul\":15165:15321   */\n      pop\n        /* \"#utility.yul\":15142:15321   */\n    tag_296:\n        /* \"#utility.yul\":15367:15368   */\n      0x01\n        /* \"#utility.yul\":15363:15364   */\n      0x02\n        /* \"#utility.yul\":15355:15361   */\n      dup9\n        /* \"#utility.yul\":15351:15365   */\n      mul\n        /* \"#utility.yul\":15347:15369   */\n      add\n        /* \"#utility.yul\":15341:15345   */\n      dup9\n        /* \"#utility.yul\":15334:15370   */\n      sstore\n        /* \"#utility.yul\":14769:15380   */\n      pop\n      pop\n      pop\n        /* \"#utility.yul\":14732:15619   */\n    tag_288:\n      pop\n        /* \"#utility.yul\":14322:15625   */\n      pop\n      pop\n      pop\n        /* \"#utility.yul\":14230:15625   */\n      pop\n      pop\n      jump\t// out\n        /* \"#utility.yul\":15631:15784   */\n    tag_126:\n        /* \"#utility.yul\":15684:15690   */\n      0x00\n        /* \"#utility.yul\":15718:15723   */\n      dup2\n        /* \"#utility.yul\":15712:15724   */\n      sload\n        /* \"#utility.yul\":15702:15724   */\n      swap1\n      pop\n        /* \"#utility.yul\":15744:15777   */\n      tag_299\n        /* \"#utility.yul\":15770:15776   */\n      dup2\n        /* \"#utility.yul\":15744:15777   */\n      tag_33\n      jump\t// in\n    tag_299:\n        /* \"#utility.yul\":15734:15777   */\n      swap1\n      pop\n        /* \"#utility.yul\":15631:15784   */\n      swap2\n      swap1\n      pop\n      jump\t// out\n        /* \"#utility.yul\":15790:15935   */\n    tag_127:\n        /* \"#utility.yul\":15843:15847   */\n      0x00\n        /* \"#utility.yul\":15866:15869   */\n      dup2\n        /* \"#utility.yul\":15858:15869   */\n      swap1\n      pop\n        /* \"#utility.yul\":15889:15892   */\n      dup2\n        /* \"#utility.yul\":15886:15887   */\n      0x00\n        /* \"#utility.yul\":15879:15893   */\n      mstore\n        /* \"#utility.yul\":15923:15927   */\n      0x20\n        /* \"#utility.yul\":15920:15921   */\n      0x00\n        /* \"#utility.yul\":15910:15928   */\n      keccak256\n        /* \"#utility.yul\":15902:15928   */\n      swap1\n      pop\n        /* \"#utility.yul\":15790:15935   */\n      swap2\n      swap1\n      pop\n      jump\t// out\n        /* \"#utility.yul\":15941:17404   */\n    tag_66:\n        /* \"#utility.yul\":16056:16059   */\n      dup2\n        /* \"#utility.yul\":16050:16054   */\n      dup2\n        /* \"#utility.yul\":16047:16060   */\n      sub\n        /* \"#utility.yul\":16044:16070   */\n      tag_302\n      jumpi\n        /* \"#utility.yul\":16063:16068   */\n      pop\n      pop\n      jump(tag_301)\n        /* \"#utility.yul\":16044:16070   */\n    tag_302:\n        /* \"#utility.yul\":16094:16132   */\n      tag_303\n        /* \"#utility.yul\":16128:16131   */\n      dup3\n        /* \"#utility.yul\":16094:16132   */\n      tag_126\n      jump\t// in\n    tag_303:\n        /* \"#utility.yul\":16197:16215   */\n      0xffffffffffffffff\n        /* \"#utility.yul\":16189:16195   */\n      dup2\n        /* \"#utility.yul\":16186:16216   */\n      gt\n        /* \"#utility.yul\":16183:16239   */\n      iszero\n      tag_304\n      jumpi\n        /* \"#utility.yul\":16219:16237   */\n      tag_305\n      tag_98\n      jump\t// in\n    tag_305:\n        /* \"#utility.yul\":16183:16239   */\n    tag_304:\n        /* \"#utility.yul\":16263:16301   */\n      tag_306\n        /* \"#utility.yul\":16295:16299   */\n      dup3\n        /* \"#utility.yul\":16289:16300   */\n      sload\n        /* \"#utility.yul\":16263:16301   */\n      tag_33\n      jump\t// in\n    tag_306:\n        /* \"#utility.yul\":16348:16415   */\n      tag_307\n        /* \"#utility.yul\":16408:16414   */\n      dup3\n        /* \"#utility.yul\":16400:16406   */\n      dup3\n        /* \"#utility.yul\":16394:16398   */\n      dup6\n        /* \"#utility.yul\":16348:16415   */\n      tag_122\n      jump\t// in\n    tag_307:\n        /* \"#utility.yul\":16442:16443   */\n      0x00\n        /* \"#utility.yul\":16471:16473   */\n      0x1f\n        /* \"#utility.yul\":16463:16469   */\n      dup4\n        /* \"#utility.yul\":16460:16474   */\n      gt\n        /* \"#utility.yul\":16488:16489   */\n      0x01\n        /* \"#utility.yul\":16483:17159   */\n      dup2\n      eq\n      tag_309\n      jumpi\n        /* \"#utility.yul\":17203:17204   */\n      0x00\n        /* \"#utility.yul\":17220:17226   */\n      dup5\n        /* \"#utility.yul\":17217:17294   */\n      iszero\n      tag_310\n      jumpi\n        /* \"#utility.yul\":17269:17278   */\n      dup3\n        /* \"#utility.yul\":17264:17267   */\n      dup8\n        /* \"#utility.yul\":17260:17279   */\n      add\n        /* \"#utility.yul\":17254:17280   */\n      sload\n        /* \"#utility.yul\":17245:17280   */\n      swap1\n      pop\n        /* \"#utility.yul\":17217:17294   */\n    tag_310:\n        /* \"#utility.yul\":17320:17387   */\n      tag_311\n        /* \"#utility.yul\":17380:17386   */\n      dup6\n        /* \"#utility.yul\":17373:17378   */\n      dup3\n        /* \"#utility.yul\":17320:17387   */\n      tag_125\n      jump\t// in\n    tag_311:\n        /* \"#utility.yul\":17314:17318   */\n      dup7\n        /* \"#utility.yul\":17307:17388   */\n      sstore\n        /* \"#utility.yul\":17176:17398   */\n      pop\n        /* \"#utility.yul\":16453:17398   */\n      jump(tag_308)\n        /* \"#utility.yul\":16483:17159   */\n    tag_309:\n        /* \"#utility.yul\":16535:16539   */\n      0x1f\n        /* \"#utility.yul\":16531:16540   */\n      not\n        /* \"#utility.yul\":16523:16529   */\n      dup5\n        /* \"#utility.yul\":16519:16541   */\n      and\n        /* \"#utility.yul\":16561:16601   */\n      tag_312\n        /* \"#utility.yul\":16597:16600   */\n      dup8\n        /* \"#utility.yul\":16561:16601   */\n      tag_127\n      jump\t// in\n    tag_312:\n        /* \"#utility.yul\":16554:16601   */\n      swap7\n      pop\n        /* \"#utility.yul\":16628:16665   */\n      tag_313\n        /* \"#utility.yul\":16660:16664   */\n      dup7\n        /* \"#utility.yul\":16628:16665   */\n      tag_110\n      jump\t// in\n    tag_313:\n        /* \"#utility.yul\":16687:16688   */\n      0x00\n        /* \"#utility.yul\":16701:16908   */\n    tag_314:\n        /* \"#utility.yul\":16715:16722   */\n      dup3\n        /* \"#utility.yul\":16712:16713   */\n      dup2\n        /* \"#utility.yul\":16709:16723   */\n      lt\n        /* \"#utility.yul\":16701:16908   */\n      iszero\n      tag_316\n      jumpi\n        /* \"#utility.yul\":16794:16803   */\n      dup5\n        /* \"#utility.yul\":16789:16792   */\n      dup10\n        /* \"#utility.yul\":16785:16804   */\n      add\n        /* \"#utility.yul\":16779:16805   */\n      sload\n        /* \"#utility.yul\":16771:16777   */\n      dup3\n        /* \"#utility.yul\":16764:16806   */\n      sstore\n        /* \"#utility.yul\":16845:16846   */\n      0x01\n        /* \"#utility.yul\":16837:16843   */\n      dup3\n        /* \"#utility.yul\":16833:16847   */\n      add\n        /* \"#utility.yul\":16823:16847   */\n      swap2\n      pop\n        /* \"#utility.yul\":16892:16893   */\n      0x01\n        /* \"#utility.yul\":16881:16890   */\n      dup6\n        /* \"#utility.yul\":16877:16894   */\n      add\n        /* \"#utility.yul\":16864:16894   */\n      swap5\n      pop\n        /* \"#utility.yul\":16738:16742   */\n      0x20\n        /* \"#utility.yul\":16735:16736   */\n      dup2\n        /* \"#utility.yul\":16731:16743   */\n      add\n        /* \"#utility.yul\":16726:16743   */\n      swap1\n      pop\n        /* \"#utility.yul\":16701:16908   */\n      jump(tag_314)\n    tag_316:\n        /* \"#utility.yul\":16936:16942   */\n      dup7\n        /* \"#utility.yul\":16927:16934   */\n      dup4\n        /* \"#utility.yul\":16924:16943   */\n      lt\n        /* \"#utility.yul\":16921:17100   */\n      iszero\n      tag_317\n      jumpi\n        /* \"#utility.yul\":16994:17003   */\n      dup5\n        /* \"#utility.yul\":16989:16992   */\n      dup10\n        /* \"#utility.yul\":16985:17004   */\n      add\n        /* \"#utility.yul\":16979:17005   */\n      sload\n        /* \"#utility.yul\":17037:17085   */\n      tag_318\n        /* \"#utility.yul\":17079:17083   */\n      0x1f\n        /* \"#utility.yul\":17071:17077   */\n      dup10\n        /* \"#utility.yul\":17067:17084   */\n      and\n        /* \"#utility.yul\":17056:17065   */\n      dup3\n        /* \"#utility.yul\":17037:17085   */\n      tag_124\n      jump\t// in\n    tag_318:\n        /* \"#utility.yul\":17029:17035   */\n      dup4\n        /* \"#utility.yul\":17022:17086   */\n      sstore\n        /* \"#utility.yul\":16944:17100   */\n      pop\n        /* \"#utility.yul\":16921:17100   */\n    tag_317:\n        /* \"#utility.yul\":17146:17147   */\n      0x01\n        /* \"#utility.yul\":17142:17143   */\n      0x02\n        /* \"#utility.yul\":17134:17140   */\n      dup9\n        /* \"#utility.yul\":17130:17144   */\n      mul\n        /* \"#utility.yul\":17126:17148   */\n      add\n        /* \"#utility.yul\":17120:17124   */\n      dup9\n        /* \"#utility.yul\":17113:17149   */\n      sstore\n        /* \"#utility.yul\":16490:17159   */\n      pop\n      pop\n      pop\n        /* \"#utility.yul\":16453:17398   */\n    tag_308:\n      pop\n        /* \"#utility.yul\":16034:17404   */\n      pop\n      pop\n      pop\n        /* \"#utility.yul\":15941:17404   */\n      pop\n      pop\n    tag_301:\n      jump\t// out\n        /* \"#utility.yul\":17410:17590   */\n    tag_128:\n        /* \"#utility.yul\":17458:17535   */\n      0x4e487b7100000000000000000000000000000000000000000000000000000000\n        /* \"#utility.yul\":17455:17456   */\n      0x00\n        /* \"#utility.yul\":17448:17536   */\n      mstore\n        /* \"#utility.yul\":17555:17559   */\n      0x11\n        /* \"#utility.yul\":17552:17553   */\n      0x04\n        /* \"#utility.yul\":17545:17560   */\n      mstore\n        /* \"#utility.yul\":17579:17583   */\n      0x24\n        /* \"#utility.yul\":17576:17577   */\n      0x00\n        /* \"#utility.yul\":17569:17584   */\n      revert\n        /* \"#utility.yul\":17596:17763   */\n    tag_68:\n        /* \"#utility.yul\":17633:17636   */\n      0x00\n        /* \"#utility.yul\":17656:17678   */\n      tag_321\n        /* \"#utility.yul\":17672:17677   */\n      dup3\n        /* \"#utility.yul\":17656:17678   */\n      tag_85\n      jump\t// in\n    tag_321:\n        /* \"#utility.yul\":17647:17678   */\n      swap2\n      pop\n        /* \"#utility.yul\":17700:17704   */\n      0xff\n        /* \"#utility.yul\":17693:17698   */\n      dup3\n        /* \"#utility.yul\":17690:17705   */\n      sub\n        /* \"#utility.yul\":17687:17728   */\n      tag_322\n      jumpi\n        /* \"#utility.yul\":17708:17726   */\n      tag_323\n      tag_128\n      jump\t// in\n    tag_323:\n        /* \"#utility.yul\":17687:17728   */\n    tag_322:\n        /* \"#utility.yul\":17755:17756   */\n      0x01\n        /* \"#utility.yul\":17748:17753   */\n      dup3\n        /* \"#utility.yul\":17744:17757   */\n      add\n        /* \"#utility.yul\":17737:17757   */\n      swap1\n      pop\n        /* \"#utility.yul\":17596:17763   */\n      swap2\n      swap1\n      pop\n      jump\t// out\n\n    auxdata: 0xa2646970667358221220d5f0bf57b82758ec075264061f3732ec7aee9e3d2e03dbeeb2c9ad0782a64bbe64736f6c63430008120033\n}\n",
				"bytecode": {
					"linkReferences": {},
					"object": "608060405234801561001057600080fd5b50336001806101000a81548173ffffffffffffffffffffffffffffffffffffffff021916908373ffffffffffffffffffffffffffffffffffffffff1602179055506000600160006101000a81548160ff021916908360ff160217905550610f108061007c6000396000f3fe608060405234801561001057600080fd5b506004361061004c5760003560e01c806302a70875146100515780633f82a08e1461006f5780638f1b6f601461009f578063dbb9ae77146100cf575b600080fd5b6100596100ff565b604051610066919061069b565b60405180910390f35b6100896004803603810190610084919061070a565b6101d8565b604051610096919061080d565b60405180910390f35b6100b960048036038101906100b4919061070a565b6102f4565b6040516100c69190610879565b60405180910390f35b6100e960048036038101906100e491906109f5565b6103a1565b6040516100f69190610a6c565b60405180910390f35b60606002805480602002602001604051908101604052809291908181526020016000905b828210156101cf57838290600052602060002001805461014290610ab6565b80601f016020809104026020016040519081016040528092919081815260200182805461016e90610ab6565b80156101bb5780601f10610190576101008083540402835291602001916101bb565b820191906000526020600020905b81548152906001019060200180831161019e57829003601f168201915b505050505081526020019060010190610123565b50505050905090565b6101e0610513565b6000808360ff1660ff16815260200190815260200160002060405180606001604052908160008201805461021390610ab6565b80601f016020809104026020016040519081016040528092919081815260200182805461023f90610ab6565b801561028c5780601f106102615761010080835404028352916020019161028c565b820191906000526020600020905b81548152906001019060200180831161026f57829003601f168201915b505050505081526020016001820160009054906101000a900460ff1660038111156102ba576102b9610737565b5b60038111156102cc576102cb610737565b5b81526020016001820160019054906101000a900460ff1660ff1660ff16815250509050919050565b60606000808360ff1660ff168152602001908152602001600020600001805461031c90610ab6565b80601f016020809104026020016040519081016040528092919081815260200182805461034890610ab6565b80156103955780601f1061036a57610100808354040283529160200191610395565b820191906000526020600020905b81548152906001019060200180831161037857829003601f168201915b50505050509050919050565b600060405180606001604052808481526020018360038111156103c7576103c6610737565b5b8152602001600160009054906101000a900460ff1660ff16815250600080600160009054906101000a900460ff1660ff1660ff168152602001908152602001600020600082015181600001908161041e9190610c9d565b5060208201518160010160006101000a81548160ff0219169083600381111561044a57610449610737565b5b021790555060408201518160010160016101000a81548160ff021916908360ff1602179055509050506002600080600160009054906101000a900460ff1660ff1660ff1681526020019081526020016000206000019080600181540180825580915050600190039060005260206000200160009091909190915090816104d09190610d9a565b506001600081819054906101000a900460ff16809291906104f090610eb1565b91906101000a81548160ff021916908360ff160217905550506001905092915050565b6040518060600160405280606081526020016000600381111561053957610538610737565b5b8152602001600060ff1681525090565b600081519050919050565b600082825260208201905092915050565b6000819050602082019050919050565b600081519050919050565b600082825260208201905092915050565b60005b838110156105af578082015181840152602081019050610594565b60008484015250505050565b6000601f19601f8301169050919050565b60006105d782610575565b6105e18185610580565b93506105f1818560208601610591565b6105fa816105bb565b840191505092915050565b600061061183836105cc565b905092915050565b6000602082019050919050565b600061063182610549565b61063b8185610554565b93508360208202850161064d85610565565b8060005b85811015610689578484038952815161066a8582610605565b945061067583610619565b925060208a01995050600181019050610651565b50829750879550505050505092915050565b600060208201905081810360008301526106b58184610626565b905092915050565b6000604051905090565b600080fd5b600080fd5b600060ff82169050919050565b6106e7816106d1565b81146106f257600080fd5b50565b600081359050610704816106de565b92915050565b6000602082840312156107205761071f6106c7565b5b600061072e848285016106f5565b91505092915050565b7f4e487b7100000000000000000000000000000000000000000000000000000000600052602160045260246000fd5b6004811061077757610776610737565b5b50565b600081905061078882610766565b919050565b60006107988261077a565b9050919050565b6107a88161078d565b82525050565b6107b7816106d1565b82525050565b600060608301600083015184820360008601526107da82826105cc565b91505060208301516107ef602086018261079f565b50604083015161080260408601826107ae565b508091505092915050565b6000602082019050818103600083015261082781846107bd565b905092915050565b600082825260208201905092915050565b600061084b82610575565b610855818561082f565b9350610865818560208601610591565b61086e816105bb565b840191505092915050565b600060208201905081810360008301526108938184610840565b905092915050565b600080fd5b600080fd5b7f4e487b7100000000000000000000000000000000000000000000000000000000600052604160045260246000fd5b6108dd826105bb565b810181811067ffffffffffffffff821117156108fc576108fb6108a5565b5b80604052505050565b600061090f6106bd565b905061091b82826108d4565b919050565b600067ffffffffffffffff82111561093b5761093a6108a5565b5b610944826105bb565b9050602081019050919050565b82818337600083830152505050565b600061097361096e84610920565b610905565b90508281526020810184848401111561098f5761098e6108a0565b5b61099a848285610951565b509392505050565b600082601f8301126109b7576109b661089b565b5b81356109c7848260208601610960565b91505092915050565b600481106109dd57600080fd5b50565b6000813590506109ef816109d0565b92915050565b60008060408385031215610a0c57610a0b6106c7565b5b600083013567ffffffffffffffff811115610a2a57610a296106cc565b5b610a36858286016109a2565b9250506020610a47858286016109e0565b9150509250929050565b60008115159050919050565b610a6681610a51565b82525050565b6000602082019050610a816000830184610a5d565b92915050565b7f4e487b7100000000000000000000000000000000000000000000000000000000600052602260045260246000fd5b60006002820490506001821680610ace57607f821691505b602082108103610ae157610ae0610a87565b5b50919050565b60008190508160005260206000209050919050565b60006020601f8301049050919050565b600082821b905092915050565b600060088302610b497fffffffffffffffffffffffffffffffffffffffffffffffffffffffffffffffff82610b0c565b610b538683610b0c565b95508019841693508086168417925050509392505050565b6000819050919050565b6000819050919050565b6000610b9a610b95610b9084610b6b565b610b75565b610b6b565b9050919050565b6000819050919050565b610bb483610b7f565b610bc8610bc082610ba1565b848454610b19565b825550505050565b600090565b610bdd610bd0565b610be8818484610bab565b505050565b5b81811015610c0c57610c01600082610bd5565b600181019050610bee565b5050565b601f821115610c5157610c2281610ae7565b610c2b84610afc565b81016020851015610c3a578190505b610c4e610c4685610afc565b830182610bed565b50505b505050565b600082821c905092915050565b6000610c7460001984600802610c56565b1980831691505092915050565b6000610c8d8383610c63565b9150826002028217905092915050565b610ca682610575565b67ffffffffffffffff811115610cbf57610cbe6108a5565b5b610cc98254610ab6565b610cd4828285610c10565b600060209050601f831160018114610d075760008415610cf5578287015190505b610cff8582610c81565b865550610d67565b601f198416610d1586610ae7565b60005b82811015610d3d57848901518255600182019150602085019450602081019050610d18565b86831015610d5a5784890151610d56601f891682610c63565b8355505b6001600288020188555050505b505050505050565b600081549050610d7e81610ab6565b9050919050565b60008190508160005260206000209050919050565b818103610da8575050610e80565b610db182610d6f565b67ffffffffffffffff811115610dca57610dc96108a5565b5b610dd48254610ab6565b610ddf828285610c10565b6000601f831160018114610e0e5760008415610dfc578287015490505b610e068582610c81565b865550610e79565b601f198416610e1c87610d85565b9650610e2786610ae7565b60005b82811015610e4f57848901548255600182019150600185019450602081019050610e2a565b86831015610e6c5784890154610e68601f891682610c63565b8355505b6001600288020188555050505b5050505050505b565b7f4e487b7100000000000000000000000000000000000000000000000000000000600052601160045260246000fd5b6000610ebc826106d1565b915060ff8203610ecf57610ece610e82565b5b60018201905091905056fea2646970667358221220d5f0bf57b82758ec075264061f3732ec7aee9e3d2e03dbeeb2c9ad0782a64bbe64736f6c63430008120033",
					"opcodes": "PUSH1 0x80 PUSH1 0x40 MSTORE CALLVALUE DUP1 ISZERO PUSH2 0x10 JUMPI PUSH1 0x0 DUP1 REVERT JUMPDEST POP CALLER PUSH1 0x1 DUP1 PUSH2 0x100 EXP DUP2 SLOAD DUP2 PUSH20 0xFFFFFFFFFFFFFFFFFFFFFFFFFFFFFFFFFFFFFFFF MUL NOT AND SWAP1 DUP4 PUSH20 0xFFFFFFFFFFFFFFFFFFFFFFFFFFFFFFFFFFFFFFFF AND MUL OR SWAP1 SSTORE POP PUSH1 0x0 PUSH1 0x1 PUSH1 0x0 PUSH2 0x100 EXP DUP2 SLOAD DUP2 PUSH1 0xFF MUL NOT AND SWAP1 DUP4 PUSH1 0xFF AND MUL OR SWAP1 SSTORE POP PUSH2 0xF10 DUP1 PUSH2 0x7C PUSH1 0x0 CODECOPY PUSH1 0x0 RETURN INVALID PUSH1 0x80 PUSH1 0x40 MSTORE CALLVALUE DUP1 ISZERO PUSH2 0x10 JUMPI PUSH1 0x0 DUP1 REVERT JUMPDEST POP PUSH1 0x4 CALLDATASIZE LT PUSH2 0x4C JUMPI PUSH1 0x0 CALLDATALOAD PUSH1 0xE0 SHR DUP1 PUSH4 0x2A70875 EQ PUSH2 0x51 JUMPI DUP1 PUSH4 0x3F82A08E EQ PUSH2 0x6F JUMPI DUP1 PUSH4 0x8F1B6F60 EQ PUSH2 0x9F JUMPI DUP1 PUSH4 0xDBB9AE77 EQ PUSH2 0xCF JUMPI JUMPDEST PUSH1 0x0 DUP1 REVERT JUMPDEST PUSH2 0x59 PUSH2 0xFF JUMP JUMPDEST PUSH1 0x40 MLOAD PUSH2 0x66 SWAP2 SWAP1 PUSH2 0x69B JUMP JUMPDEST PUSH1 0x40 MLOAD DUP1 SWAP2 SUB SWAP1 RETURN JUMPDEST PUSH2 0x89 PUSH1 0x4 DUP1 CALLDATASIZE SUB DUP2 ADD SWAP1 PUSH2 0x84 SWAP2 SWAP1 PUSH2 0x70A JUMP JUMPDEST PUSH2 0x1D8 JUMP JUMPDEST PUSH1 0x40 MLOAD PUSH2 0x96 SWAP2 SWAP1 PUSH2 0x80D JUMP JUMPDEST PUSH1 0x40 MLOAD DUP1 SWAP2 SUB SWAP1 RETURN JUMPDEST PUSH2 0xB9 PUSH1 0x4 DUP1 CALLDATASIZE SUB DUP2 ADD SWAP1 PUSH2 0xB4 SWAP2 SWAP1 PUSH2 0x70A JUMP JUMPDEST PUSH2 0x2F4 JUMP JUMPDEST PUSH1 0x40 MLOAD PUSH2 0xC6 SWAP2 SWAP1 PUSH2 0x879 JUMP JUMPDEST PUSH1 0x40 MLOAD DUP1 SWAP2 SUB SWAP1 RETURN JUMPDEST PUSH2 0xE9 PUSH1 0x4 DUP1 CALLDATASIZE SUB DUP2 ADD SWAP1 PUSH2 0xE4 SWAP2 SWAP1 PUSH2 0x9F5 JUMP JUMPDEST PUSH2 0x3A1 JUMP JUMPDEST PUSH1 0x40 MLOAD PUSH2 0xF6 SWAP2 SWAP1 PUSH2 0xA6C JUMP JUMPDEST PUSH1 0x40 MLOAD DUP1 SWAP2 SUB SWAP1 RETURN JUMPDEST PUSH1 0x60 PUSH1 0x2 DUP1 SLOAD DUP1 PUSH1 0x20 MUL PUSH1 0x20 ADD PUSH1 0x40 MLOAD SWAP1 DUP2 ADD PUSH1 0x40 MSTORE DUP1 SWAP3 SWAP2 SWAP1 DUP2 DUP2 MSTORE PUSH1 0x20 ADD PUSH1 0x0 SWAP1 JUMPDEST DUP3 DUP3 LT ISZERO PUSH2 0x1CF JUMPI DUP4 DUP3 SWAP1 PUSH1 0x0 MSTORE PUSH1 0x20 PUSH1 0x0 KECCAK256 ADD DUP1 SLOAD PUSH2 0x142 SWAP1 PUSH2 0xAB6 JUMP JUMPDEST DUP1 PUSH1 0x1F ADD PUSH1 0x20 DUP1 SWAP2 DIV MUL PUSH1 0x20 ADD PUSH1 0x40 MLOAD SWAP1 DUP2 ADD PUSH1 0x40 MSTORE DUP1 SWAP3 SWAP2 SWAP1 DUP2 DUP2 MSTORE PUSH1 0x20 ADD DUP3 DUP1 SLOAD PUSH2 0x16E SWAP1 PUSH2 0xAB6 JUMP JUMPDEST DUP1 ISZERO PUSH2 0x1BB JUMPI DUP1 PUSH1 0x1F LT PUSH2 0x190 JUMPI PUSH2 0x100 DUP1 DUP4 SLOAD DIV MUL DUP4 MSTORE SWAP2 PUSH1 0x20 ADD SWAP2 PUSH2 0x1BB JUMP JUMPDEST DUP3 ADD SWAP2 SWAP1 PUSH1 0x0 MSTORE PUSH1 0x20 PUSH1 0x0 KECCAK256 SWAP1 JUMPDEST DUP2 SLOAD DUP2 MSTORE SWAP1 PUSH1 0x1 ADD SWAP1 PUSH1 0x20 ADD DUP1 DUP4 GT PUSH2 0x19E JUMPI DUP3 SWAP1 SUB PUSH1 0x1F AND DUP3 ADD SWAP2 JUMPDEST POP POP POP POP POP DUP2 MSTORE PUSH1 0x20 ADD SWAP1 PUSH1 0x1 ADD SWAP1 PUSH2 0x123 JUMP JUMPDEST POP POP POP POP SWAP1 POP SWAP1 JUMP JUMPDEST PUSH2 0x1E0 PUSH2 0x513 JUMP JUMPDEST PUSH1 0x0 DUP1 DUP4 PUSH1 0xFF AND PUSH1 0xFF AND DUP2 MSTORE PUSH1 0x20 ADD SWAP1 DUP2 MSTORE PUSH1 0x20 ADD PUSH1 0x0 KECCAK256 PUSH1 0x40 MLOAD DUP1 PUSH1 0x60 ADD PUSH1 0x40 MSTORE SWAP1 DUP2 PUSH1 0x0 DUP3 ADD DUP1 SLOAD PUSH2 0x213 SWAP1 PUSH2 0xAB6 JUMP JUMPDEST DUP1 PUSH1 0x1F ADD PUSH1 0x20 DUP1 SWAP2 DIV MUL PUSH1 0x20 ADD PUSH1 0x40 MLOAD SWAP1 DUP2 ADD PUSH1 0x40 MSTORE DUP1 SWAP3 SWAP2 SWAP1 DUP2 DUP2 MSTORE PUSH1 0x20 ADD DUP3 DUP1 SLOAD PUSH2 0x23F SWAP1 PUSH2 0xAB6 JUMP JUMPDEST DUP1 ISZERO PUSH2 0x28C JUMPI DUP1 PUSH1 0x1F LT PUSH2 0x261 JUMPI PUSH2 0x100 DUP1 DUP4 SLOAD DIV MUL DUP4 MSTORE SWAP2 PUSH1 0x20 ADD SWAP2 PUSH2 0x28C JUMP JUMPDEST DUP3 ADD SWAP2 SWAP1 PUSH1 0x0 MSTORE PUSH1 0x20 PUSH1 0x0 KECCAK256 SWAP1 JUMPDEST DUP2 SLOAD DUP2 MSTORE SWAP1 PUSH1 0x1 ADD SWAP1 PUSH1 0x20 ADD DUP1 DUP4 GT PUSH2 0x26F JUMPI DUP3 SWAP1 SUB PUSH1 0x1F AND DUP3 ADD SWAP2 JUMPDEST POP POP POP POP POP DUP2 MSTORE PUSH1 0x20 ADD PUSH1 0x1 DUP3 ADD PUSH1 0x0 SWAP1 SLOAD SWAP1 PUSH2 0x100 EXP SWAP1 DIV PUSH1 0xFF AND PUSH1 0x3 DUP2 GT ISZERO PUSH2 0x2BA JUMPI PUSH2 0x2B9 PUSH2 0x737 JUMP JUMPDEST JUMPDEST PUSH1 0x3 DUP2 GT ISZERO PUSH2 0x2CC JUMPI PUSH2 0x2CB PUSH2 0x737 JUMP JUMPDEST JUMPDEST DUP2 MSTORE PUSH1 0x20 ADD PUSH1 0x1 DUP3 ADD PUSH1 0x1 SWAP1 SLOAD SWAP1 PUSH2 0x100 EXP SWAP1 DIV PUSH1 0xFF AND PUSH1 0xFF AND PUSH1 0xFF AND DUP2 MSTORE POP POP SWAP1 POP SWAP2 SWAP1 POP JUMP JUMPDEST PUSH1 0x60 PUSH1 0x0 DUP1 DUP4 PUSH1 0xFF AND PUSH1 0xFF AND DUP2 MSTORE PUSH1 0x20 ADD SWAP1 DUP2 MSTORE PUSH1 0x20 ADD PUSH1 0x0 KECCAK256 PUSH1 0x0 ADD DUP1 SLOAD PUSH2 0x31C SWAP1 PUSH2 0xAB6 JUMP JUMPDEST DUP1 PUSH1 0x1F ADD PUSH1 0x20 DUP1 SWAP2 DIV MUL PUSH1 0x20 ADD PUSH1 0x40 MLOAD SWAP1 DUP2 ADD PUSH1 0x40 MSTORE DUP1 SWAP3 SWAP2 SWAP1 DUP2 DUP2 MSTORE PUSH1 0x20 ADD DUP3 DUP1 SLOAD PUSH2 0x348 SWAP1 PUSH2 0xAB6 JUMP JUMPDEST DUP1 ISZERO PUSH2 0x395 JUMPI DUP1 PUSH1 0x1F LT PUSH2 0x36A JUMPI PUSH2 0x100 DUP1 DUP4 SLOAD DIV MUL DUP4 MSTORE SWAP2 PUSH1 0x20 ADD SWAP2 PUSH2 0x395 JUMP JUMPDEST DUP3 ADD SWAP2 SWAP1 PUSH1 0x0 MSTORE PUSH1 0x20 PUSH1 0x0 KECCAK256 SWAP1 JUMPDEST DUP2 SLOAD DUP2 MSTORE SWAP1 PUSH1 0x1 ADD SWAP1 PUSH1 0x20 ADD DUP1 DUP4 GT PUSH2 0x378 JUMPI DUP3 SWAP1 SUB PUSH1 0x1F AND DUP3 ADD SWAP2 JUMPDEST POP POP POP POP POP SWAP1 POP SWAP2 SWAP1 POP JUMP JUMPDEST PUSH1 0x0 PUSH1 0x40 MLOAD DUP1 PUSH1 0x60 ADD PUSH1 0x40 MSTORE DUP1 DUP5 DUP2 MSTORE PUSH1 0x20 ADD DUP4 PUSH1 0x3 DUP2 GT ISZERO PUSH2 0x3C7 JUMPI PUSH2 0x3C6 PUSH2 0x737 JUMP JUMPDEST JUMPDEST DUP2 MSTORE PUSH1 0x20 ADD PUSH1 0x1 PUSH1 0x0 SWAP1 SLOAD SWAP1 PUSH2 0x100 EXP SWAP1 DIV PUSH1 0xFF AND PUSH1 0xFF AND DUP2 MSTORE POP PUSH1 0x0 DUP1 PUSH1 0x1 PUSH1 0x0 SWAP1 SLOAD SWAP1 PUSH2 0x100 EXP SWAP1 DIV PUSH1 0xFF AND PUSH1 0xFF AND PUSH1 0xFF AND DUP2 MSTORE PUSH1 0x20 ADD SWAP1 DUP2 MSTORE PUSH1 0x20 ADD PUSH1 0x0 KECCAK256 PUSH1 0x0 DUP3 ADD MLOAD DUP2 PUSH1 0x0 ADD SWAP1 DUP2 PUSH2 0x41E SWAP2 SWAP1 PUSH2 0xC9D JUMP JUMPDEST POP PUSH1 0x20 DUP3 ADD MLOAD DUP2 PUSH1 0x1 ADD PUSH1 0x0 PUSH2 0x100 EXP DUP2 SLOAD DUP2 PUSH1 0xFF MUL NOT AND SWAP1 DUP4 PUSH1 0x3 DUP2 GT ISZERO PUSH2 0x44A JUMPI PUSH2 0x449 PUSH2 0x737 JUMP JUMPDEST JUMPDEST MUL OR SWAP1 SSTORE POP PUSH1 0x40 DUP3 ADD MLOAD DUP2 PUSH1 0x1 ADD PUSH1 0x1 PUSH2 0x100 EXP DUP2 SLOAD DUP2 PUSH1 0xFF MUL NOT AND SWAP1 DUP4 PUSH1 0xFF AND MUL OR SWAP1 SSTORE POP SWAP1 POP POP PUSH1 0x2 PUSH1 0x0 DUP1 PUSH1 0x1 PUSH1 0x0 SWAP1 SLOAD SWAP1 PUSH2 0x100 EXP SWAP1 DIV PUSH1 0xFF AND PUSH1 0xFF AND PUSH1 0xFF AND DUP2 MSTORE PUSH1 0x20 ADD SWAP1 DUP2 MSTORE PUSH1 0x20 ADD PUSH1 0x0 KECCAK256 PUSH1 0x0 ADD SWAP1 DUP1 PUSH1 0x1 DUP2 SLOAD ADD DUP1 DUP3 SSTORE DUP1 SWAP2 POP POP PUSH1 0x1 SWAP1 SUB SWAP1 PUSH1 0x0 MSTORE PUSH1 0x20 PUSH1 0x0 KECCAK256 ADD PUSH1 0x0 SWAP1 SWAP2 SWAP1 SWAP2 SWAP1 SWAP2 POP SWAP1 DUP2 PUSH2 0x4D0 SWAP2 SWAP1 PUSH2 0xD9A JUMP JUMPDEST POP PUSH1 0x1 PUSH1 0x0 DUP2 DUP2 SWAP1 SLOAD SWAP1 PUSH2 0x100 EXP SWAP1 DIV PUSH1 0xFF AND DUP1 SWAP3 SWAP2 SWAP1 PUSH2 0x4F0 SWAP1 PUSH2 0xEB1 JUMP JUMPDEST SWAP2 SWAP1 PUSH2 0x100 EXP DUP2 SLOAD DUP2 PUSH1 0xFF MUL NOT AND SWAP1 DUP4 PUSH1 0xFF AND MUL OR SWAP1 SSTORE POP POP PUSH1 0x1 SWAP1 POP SWAP3 SWAP2 POP POP JUMP JUMPDEST PUSH1 0x40 MLOAD DUP1 PUSH1 0x60 ADD PUSH1 0x40 MSTORE DUP1 PUSH1 0x60 DUP2 MSTORE PUSH1 0x20 ADD PUSH1 0x0 PUSH1 0x3 DUP2 GT ISZERO PUSH2 0x539 JUMPI PUSH2 0x538 PUSH2 0x737 JUMP JUMPDEST JUMPDEST DUP2 MSTORE PUSH1 0x20 ADD PUSH1 0x0 PUSH1 0xFF AND DUP2 MSTORE POP SWAP1 JUMP JUMPDEST PUSH1 0x0 DUP2 MLOAD SWAP1 POP SWAP2 SWAP1 POP JUMP JUMPDEST PUSH1 0x0 DUP3 DUP3 MSTORE PUSH1 0x20 DUP3 ADD SWAP1 POP SWAP3 SWAP2 POP POP JUMP JUMPDEST PUSH1 0x0 DUP2 SWAP1 POP PUSH1 0x20 DUP3 ADD SWAP1 POP SWAP2 SWAP1 POP JUMP JUMPDEST PUSH1 0x0 DUP2 MLOAD SWAP1 POP SWAP2 SWAP1 POP JUMP JUMPDEST PUSH1 0x0 DUP3 DUP3 MSTORE PUSH1 0x20 DUP3 ADD SWAP1 POP SWAP3 SWAP2 POP POP JUMP JUMPDEST PUSH1 0x0 JUMPDEST DUP4 DUP2 LT ISZERO PUSH2 0x5AF JUMPI DUP1 DUP3 ADD MLOAD DUP2 DUP5 ADD MSTORE PUSH1 0x20 DUP2 ADD SWAP1 POP PUSH2 0x594 JUMP JUMPDEST PUSH1 0x0 DUP5 DUP5 ADD MSTORE POP POP POP POP JUMP JUMPDEST PUSH1 0x0 PUSH1 0x1F NOT PUSH1 0x1F DUP4 ADD AND SWAP1 POP SWAP2 SWAP1 POP JUMP JUMPDEST PUSH1 0x0 PUSH2 0x5D7 DUP3 PUSH2 0x575 JUMP JUMPDEST PUSH2 0x5E1 DUP2 DUP6 PUSH2 0x580 JUMP JUMPDEST SWAP4 POP PUSH2 0x5F1 DUP2 DUP6 PUSH1 0x20 DUP7 ADD PUSH2 0x591 JUMP JUMPDEST PUSH2 0x5FA DUP2 PUSH2 0x5BB JUMP JUMPDEST DUP5 ADD SWAP2 POP POP SWAP3 SWAP2 POP POP JUMP JUMPDEST PUSH1 0x0 PUSH2 0x611 DUP4 DUP4 PUSH2 0x5CC JUMP JUMPDEST SWAP1 POP SWAP3 SWAP2 POP POP JUMP JUMPDEST PUSH1 0x0 PUSH1 0x20 DUP3 ADD SWAP1 POP SWAP2 SWAP1 POP JUMP JUMPDEST PUSH1 0x0 PUSH2 0x631 DUP3 PUSH2 0x549 JUMP JUMPDEST PUSH2 0x63B DUP2 DUP6 PUSH2 0x554 JUMP JUMPDEST SWAP4 POP DUP4 PUSH1 0x20 DUP3 MUL DUP6 ADD PUSH2 0x64D DUP6 PUSH2 0x565 JUMP JUMPDEST DUP1 PUSH1 0x0 JUMPDEST DUP6 DUP2 LT ISZERO PUSH2 0x689 JUMPI DUP5 DUP5 SUB DUP10 MSTORE DUP2 MLOAD PUSH2 0x66A DUP6 DUP3 PUSH2 0x605 JUMP JUMPDEST SWAP5 POP PUSH2 0x675 DUP4 PUSH2 0x619 JUMP JUMPDEST SWAP3 POP PUSH1 0x20 DUP11 ADD SWAP10 POP POP PUSH1 0x1 DUP2 ADD SWAP1 POP PUSH2 0x651 JUMP JUMPDEST POP DUP3 SWAP8 POP DUP8 SWAP6 POP POP POP POP POP POP SWAP3 SWAP2 POP POP JUMP JUMPDEST PUSH1 0x0 PUSH1 0x20 DUP3 ADD SWAP1 POP DUP2 DUP2 SUB PUSH1 0x0 DUP4 ADD MSTORE PUSH2 0x6B5 DUP2 DUP5 PUSH2 0x626 JUMP JUMPDEST SWAP1 POP SWAP3 SWAP2 POP POP JUMP JUMPDEST PUSH1 0x0 PUSH1 0x40 MLOAD SWAP1 POP SWAP1 JUMP JUMPDEST PUSH1 0x0 DUP1 REVERT JUMPDEST PUSH1 0x0 DUP1 REVERT JUMPDEST PUSH1 0x0 PUSH1 0xFF DUP3 AND SWAP1 POP SWAP2 SWAP1 POP JUMP JUMPDEST PUSH2 0x6E7 DUP2 PUSH2 0x6D1 JUMP JUMPDEST DUP2 EQ PUSH2 0x6F2 JUMPI PUSH1 0x0 DUP1 REVERT JUMPDEST POP JUMP JUMPDEST PUSH1 0x0 DUP2 CALLDATALOAD SWAP1 POP PUSH2 0x704 DUP2 PUSH2 0x6DE JUMP JUMPDEST SWAP3 SWAP2 POP POP JUMP JUMPDEST PUSH1 0x0 PUSH1 0x20 DUP3 DUP5 SUB SLT ISZERO PUSH2 0x720 JUMPI PUSH2 0x71F PUSH2 0x6C7 JUMP JUMPDEST JUMPDEST PUSH1 0x0 PUSH2 0x72E DUP5 DUP3 DUP6 ADD PUSH2 0x6F5 JUMP JUMPDEST SWAP2 POP POP SWAP3 SWAP2 POP POP JUMP JUMPDEST PUSH32 0x4E487B7100000000000000000000000000000000000000000000000000000000 PUSH1 0x0 MSTORE PUSH1 0x21 PUSH1 0x4 MSTORE PUSH1 0x24 PUSH1 0x0 REVERT JUMPDEST PUSH1 0x4 DUP2 LT PUSH2 0x777 JUMPI PUSH2 0x776 PUSH2 0x737 JUMP JUMPDEST JUMPDEST POP JUMP JUMPDEST PUSH1 0x0 DUP2 SWAP1 POP PUSH2 0x788 DUP3 PUSH2 0x766 JUMP JUMPDEST SWAP2 SWAP1 POP JUMP JUMPDEST PUSH1 0x0 PUSH2 0x798 DUP3 PUSH2 0x77A JUMP JUMPDEST SWAP1 POP SWAP2 SWAP1 POP JUMP JUMPDEST PUSH2 0x7A8 DUP2 PUSH2 0x78D JUMP JUMPDEST DUP3 MSTORE POP POP JUMP JUMPDEST PUSH2 0x7B7 DUP2 PUSH2 0x6D1 JUMP JUMPDEST DUP3 MSTORE POP POP JUMP JUMPDEST PUSH1 0x0 PUSH1 0x60 DUP4 ADD PUSH1 0x0 DUP4 ADD MLOAD DUP5 DUP3 SUB PUSH1 0x0 DUP7 ADD MSTORE PUSH2 0x7DA DUP3 DUP3 PUSH2 0x5CC JUMP JUMPDEST SWAP2 POP POP PUSH1 0x20 DUP4 ADD MLOAD PUSH2 0x7EF PUSH1 0x20 DUP7 ADD DUP3 PUSH2 0x79F JUMP JUMPDEST POP PUSH1 0x40 DUP4 ADD MLOAD PUSH2 0x802 PUSH1 0x40 DUP7 ADD DUP3 PUSH2 0x7AE JUMP JUMPDEST POP DUP1 SWAP2 POP POP SWAP3 SWAP2 POP POP JUMP JUMPDEST PUSH1 0x0 PUSH1 0x20 DUP3 ADD SWAP1 POP DUP2 DUP2 SUB PUSH1 0x0 DUP4 ADD MSTORE PUSH2 0x827 DUP2 DUP5 PUSH2 0x7BD JUMP JUMPDEST SWAP1 POP SWAP3 SWAP2 POP POP JUMP JUMPDEST PUSH1 0x0 DUP3 DUP3 MSTORE PUSH1 0x20 DUP3 ADD SWAP1 POP SWAP3 SWAP2 POP POP JUMP JUMPDEST PUSH1 0x0 PUSH2 0x84B DUP3 PUSH2 0x575 JUMP JUMPDEST PUSH2 0x855 DUP2 DUP6 PUSH2 0x82F JUMP JUMPDEST SWAP4 POP PUSH2 0x865 DUP2 DUP6 PUSH1 0x20 DUP7 ADD PUSH2 0x591 JUMP JUMPDEST PUSH2 0x86E DUP2 PUSH2 0x5BB JUMP JUMPDEST DUP5 ADD SWAP2 POP POP SWAP3 SWAP2 POP POP JUMP JUMPDEST PUSH1 0x0 PUSH1 0x20 DUP3 ADD SWAP1 POP DUP2 DUP2 SUB PUSH1 0x0 DUP4 ADD MSTORE PUSH2 0x893 DUP2 DUP5 PUSH2 0x840 JUMP JUMPDEST SWAP1 POP SWAP3 SWAP2 POP POP JUMP JUMPDEST PUSH1 0x0 DUP1 REVERT JUMPDEST PUSH1 0x0 DUP1 REVERT JUMPDEST PUSH32 0x4E487B7100000000000000000000000000000000000000000000000000000000 PUSH1 0x0 MSTORE PUSH1 0x41 PUSH1 0x4 MSTORE PUSH1 0x24 PUSH1 0x0 REVERT JUMPDEST PUSH2 0x8DD DUP3 PUSH2 0x5BB JUMP JUMPDEST DUP2 ADD DUP2 DUP2 LT PUSH8 0xFFFFFFFFFFFFFFFF DUP3 GT OR ISZERO PUSH2 0x8FC JUMPI PUSH2 0x8FB PUSH2 0x8A5 JUMP JUMPDEST JUMPDEST DUP1 PUSH1 0x40 MSTORE POP POP POP JUMP JUMPDEST PUSH1 0x0 PUSH2 0x90F PUSH2 0x6BD JUMP JUMPDEST SWAP1 POP PUSH2 0x91B DUP3 DUP3 PUSH2 0x8D4 JUMP JUMPDEST SWAP2 SWAP1 POP JUMP JUMPDEST PUSH1 0x0 PUSH8 0xFFFFFFFFFFFFFFFF DUP3 GT ISZERO PUSH2 0x93B JUMPI PUSH2 0x93A PUSH2 0x8A5 JUMP JUMPDEST JUMPDEST PUSH2 0x944 DUP3 PUSH2 0x5BB JUMP JUMPDEST SWAP1 POP PUSH1 0x20 DUP2 ADD SWAP1 POP SWAP2 SWAP1 POP JUMP JUMPDEST DUP3 DUP2 DUP4 CALLDATACOPY PUSH1 0x0 DUP4 DUP4 ADD MSTORE POP POP POP JUMP JUMPDEST PUSH1 0x0 PUSH2 0x973 PUSH2 0x96E DUP5 PUSH2 0x920 JUMP JUMPDEST PUSH2 0x905 JUMP JUMPDEST SWAP1 POP DUP3 DUP2 MSTORE PUSH1 0x20 DUP2 ADD DUP5 DUP5 DUP5 ADD GT ISZERO PUSH2 0x98F JUMPI PUSH2 0x98E PUSH2 0x8A0 JUMP JUMPDEST JUMPDEST PUSH2 0x99A DUP5 DUP3 DUP6 PUSH2 0x951 JUMP JUMPDEST POP SWAP4 SWAP3 POP POP POP JUMP JUMPDEST PUSH1 0x0 DUP3 PUSH1 0x1F DUP4 ADD SLT PUSH2 0x9B7 JUMPI PUSH2 0x9B6 PUSH2 0x89B JUMP JUMPDEST JUMPDEST DUP2 CALLDATALOAD PUSH2 0x9C7 DUP5 DUP3 PUSH1 0x20 DUP7 ADD PUSH2 0x960 JUMP JUMPDEST SWAP2 POP POP SWAP3 SWAP2 POP POP JUMP JUMPDEST PUSH1 0x4 DUP2 LT PUSH2 0x9DD JUMPI PUSH1 0x0 DUP1 REVERT JUMPDEST POP JUMP JUMPDEST PUSH1 0x0 DUP2 CALLDATALOAD SWAP1 POP PUSH2 0x9EF DUP2 PUSH2 0x9D0 JUMP JUMPDEST SWAP3 SWAP2 POP POP JUMP JUMPDEST PUSH1 0x0 DUP1 PUSH1 0x40 DUP4 DUP6 SUB SLT ISZERO PUSH2 0xA0C JUMPI PUSH2 0xA0B PUSH2 0x6C7 JUMP JUMPDEST JUMPDEST PUSH1 0x0 DUP4 ADD CALLDATALOAD PUSH8 0xFFFFFFFFFFFFFFFF DUP2 GT ISZERO PUSH2 0xA2A JUMPI PUSH2 0xA29 PUSH2 0x6CC JUMP JUMPDEST JUMPDEST PUSH2 0xA36 DUP6 DUP3 DUP7 ADD PUSH2 0x9A2 JUMP JUMPDEST SWAP3 POP POP PUSH1 0x20 PUSH2 0xA47 DUP6 DUP3 DUP7 ADD PUSH2 0x9E0 JUMP JUMPDEST SWAP2 POP POP SWAP3 POP SWAP3 SWAP1 POP JUMP JUMPDEST PUSH1 0x0 DUP2 ISZERO ISZERO SWAP1 POP SWAP2 SWAP1 POP JUMP JUMPDEST PUSH2 0xA66 DUP2 PUSH2 0xA51 JUMP JUMPDEST DUP3 MSTORE POP POP JUMP JUMPDEST PUSH1 0x0 PUSH1 0x20 DUP3 ADD SWAP1 POP PUSH2 0xA81 PUSH1 0x0 DUP4 ADD DUP5 PUSH2 0xA5D JUMP JUMPDEST SWAP3 SWAP2 POP POP JUMP JUMPDEST PUSH32 0x4E487B7100000000000000000000000000000000000000000000000000000000 PUSH1 0x0 MSTORE PUSH1 0x22 PUSH1 0x4 MSTORE PUSH1 0x24 PUSH1 0x0 REVERT JUMPDEST PUSH1 0x0 PUSH1 0x2 DUP3 DIV SWAP1 POP PUSH1 0x1 DUP3 AND DUP1 PUSH2 0xACE JUMPI PUSH1 0x7F DUP3 AND SWAP2 POP JUMPDEST PUSH1 0x20 DUP3 LT DUP2 SUB PUSH2 0xAE1 JUMPI PUSH2 0xAE0 PUSH2 0xA87 JUMP JUMPDEST JUMPDEST POP SWAP2 SWAP1 POP JUMP JUMPDEST PUSH1 0x0 DUP2 SWAP1 POP DUP2 PUSH1 0x0 MSTORE PUSH1 0x20 PUSH1 0x0 KECCAK256 SWAP1 POP SWAP2 SWAP1 POP JUMP JUMPDEST PUSH1 0x0 PUSH1 0x20 PUSH1 0x1F DUP4 ADD DIV SWAP1 POP SWAP2 SWAP1 POP JUMP JUMPDEST PUSH1 0x0 DUP3 DUP3 SHL SWAP1 POP SWAP3 SWAP2 POP POP JUMP JUMPDEST PUSH1 0x0 PUSH1 0x8 DUP4 MUL PUSH2 0xB49 PUSH32 0xFFFFFFFFFFFFFFFFFFFFFFFFFFFFFFFFFFFFFFFFFFFFFFFFFFFFFFFFFFFFFFFF DUP3 PUSH2 0xB0C JUMP JUMPDEST PUSH2 0xB53 DUP7 DUP4 PUSH2 0xB0C JUMP JUMPDEST SWAP6 POP DUP1 NOT DUP5 AND SWAP4 POP DUP1 DUP7 AND DUP5 OR SWAP3 POP POP POP SWAP4 SWAP3 POP POP POP JUMP JUMPDEST PUSH1 0x0 DUP2 SWAP1 POP SWAP2 SWAP1 POP JUMP JUMPDEST PUSH1 0x0 DUP2 SWAP1 POP SWAP2 SWAP1 POP JUMP JUMPDEST PUSH1 0x0 PUSH2 0xB9A PUSH2 0xB95 PUSH2 0xB90 DUP5 PUSH2 0xB6B JUMP JUMPDEST PUSH2 0xB75 JUMP JUMPDEST PUSH2 0xB6B JUMP JUMPDEST SWAP1 POP SWAP2 SWAP1 POP JUMP JUMPDEST PUSH1 0x0 DUP2 SWAP1 POP SWAP2 SWAP1 POP JUMP JUMPDEST PUSH2 0xBB4 DUP4 PUSH2 0xB7F JUMP JUMPDEST PUSH2 0xBC8 PUSH2 0xBC0 DUP3 PUSH2 0xBA1 JUMP JUMPDEST DUP5 DUP5 SLOAD PUSH2 0xB19 JUMP JUMPDEST DUP3 SSTORE POP POP POP POP JUMP JUMPDEST PUSH1 0x0 SWAP1 JUMP JUMPDEST PUSH2 0xBDD PUSH2 0xBD0 JUMP JUMPDEST PUSH2 0xBE8 DUP2 DUP5 DUP5 PUSH2 0xBAB JUMP JUMPDEST POP POP POP JUMP JUMPDEST JUMPDEST DUP2 DUP2 LT ISZERO PUSH2 0xC0C JUMPI PUSH2 0xC01 PUSH1 0x0 DUP3 PUSH2 0xBD5 JUMP JUMPDEST PUSH1 0x1 DUP2 ADD SWAP1 POP PUSH2 0xBEE JUMP JUMPDEST POP POP JUMP JUMPDEST PUSH1 0x1F DUP3 GT ISZERO PUSH2 0xC51 JUMPI PUSH2 0xC22 DUP2 PUSH2 0xAE7 JUMP JUMPDEST PUSH2 0xC2B DUP5 PUSH2 0xAFC JUMP JUMPDEST DUP2 ADD PUSH1 0x20 DUP6 LT ISZERO PUSH2 0xC3A JUMPI DUP2 SWAP1 POP JUMPDEST PUSH2 0xC4E PUSH2 0xC46 DUP6 PUSH2 0xAFC JUMP JUMPDEST DUP4 ADD DUP3 PUSH2 0xBED JUMP JUMPDEST POP POP JUMPDEST POP POP POP JUMP JUMPDEST PUSH1 0x0 DUP3 DUP3 SHR SWAP1 POP SWAP3 SWAP2 POP POP JUMP JUMPDEST PUSH1 0x0 PUSH2 0xC74 PUSH1 0x0 NOT DUP5 PUSH1 0x8 MUL PUSH2 0xC56 JUMP JUMPDEST NOT DUP1 DUP4 AND SWAP2 POP POP SWAP3 SWAP2 POP POP JUMP JUMPDEST PUSH1 0x0 PUSH2 0xC8D DUP4 DUP4 PUSH2 0xC63 JUMP JUMPDEST SWAP2 POP DUP3 PUSH1 0x2 MUL DUP3 OR SWAP1 POP SWAP3 SWAP2 POP POP JUMP JUMPDEST PUSH2 0xCA6 DUP3 PUSH2 0x575 JUMP JUMPDEST PUSH8 0xFFFFFFFFFFFFFFFF DUP2 GT ISZERO PUSH2 0xCBF JUMPI PUSH2 0xCBE PUSH2 0x8A5 JUMP JUMPDEST JUMPDEST PUSH2 0xCC9 DUP3 SLOAD PUSH2 0xAB6 JUMP JUMPDEST PUSH2 0xCD4 DUP3 DUP3 DUP6 PUSH2 0xC10 JUMP JUMPDEST PUSH1 0x0 PUSH1 0x20 SWAP1 POP PUSH1 0x1F DUP4 GT PUSH1 0x1 DUP2 EQ PUSH2 0xD07 JUMPI PUSH1 0x0 DUP5 ISZERO PUSH2 0xCF5 JUMPI DUP3 DUP8 ADD MLOAD SWAP1 POP JUMPDEST PUSH2 0xCFF DUP6 DUP3 PUSH2 0xC81 JUMP JUMPDEST DUP7 SSTORE POP PUSH2 0xD67 JUMP JUMPDEST PUSH1 0x1F NOT DUP5 AND PUSH2 0xD15 DUP7 PUSH2 0xAE7 JUMP JUMPDEST PUSH1 0x0 JUMPDEST DUP3 DUP2 LT ISZERO PUSH2 0xD3D JUMPI DUP5 DUP10 ADD MLOAD DUP3 SSTORE PUSH1 0x1 DUP3 ADD SWAP2 POP PUSH1 0x20 DUP6 ADD SWAP5 POP PUSH1 0x20 DUP2 ADD SWAP1 POP PUSH2 0xD18 JUMP JUMPDEST DUP7 DUP4 LT ISZERO PUSH2 0xD5A JUMPI DUP5 DUP10 ADD MLOAD PUSH2 0xD56 PUSH1 0x1F DUP10 AND DUP3 PUSH2 0xC63 JUMP JUMPDEST DUP4 SSTORE POP JUMPDEST PUSH1 0x1 PUSH1 0x2 DUP9 MUL ADD DUP9 SSTORE POP POP POP JUMPDEST POP POP POP POP POP POP JUMP JUMPDEST PUSH1 0x0 DUP2 SLOAD SWAP1 POP PUSH2 0xD7E DUP2 PUSH2 0xAB6 JUMP JUMPDEST SWAP1 POP SWAP2 SWAP1 POP JUMP JUMPDEST PUSH1 0x0 DUP2 SWAP1 POP DUP2 PUSH1 0x0 MSTORE PUSH1 0x20 PUSH1 0x0 KECCAK256 SWAP1 POP SWAP2 SWAP1 POP JUMP JUMPDEST DUP2 DUP2 SUB PUSH2 0xDA8 JUMPI POP POP PUSH2 0xE80 JUMP JUMPDEST PUSH2 0xDB1 DUP3 PUSH2 0xD6F JUMP JUMPDEST PUSH8 0xFFFFFFFFFFFFFFFF DUP2 GT ISZERO PUSH2 0xDCA JUMPI PUSH2 0xDC9 PUSH2 0x8A5 JUMP JUMPDEST JUMPDEST PUSH2 0xDD4 DUP3 SLOAD PUSH2 0xAB6 JUMP JUMPDEST PUSH2 0xDDF DUP3 DUP3 DUP6 PUSH2 0xC10 JUMP JUMPDEST PUSH1 0x0 PUSH1 0x1F DUP4 GT PUSH1 0x1 DUP2 EQ PUSH2 0xE0E JUMPI PUSH1 0x0 DUP5 ISZERO PUSH2 0xDFC JUMPI DUP3 DUP8 ADD SLOAD SWAP1 POP JUMPDEST PUSH2 0xE06 DUP6 DUP3 PUSH2 0xC81 JUMP JUMPDEST DUP7 SSTORE POP PUSH2 0xE79 JUMP JUMPDEST PUSH1 0x1F NOT DUP5 AND PUSH2 0xE1C DUP8 PUSH2 0xD85 JUMP JUMPDEST SWAP7 POP PUSH2 0xE27 DUP7 PUSH2 0xAE7 JUMP JUMPDEST PUSH1 0x0 JUMPDEST DUP3 DUP2 LT ISZERO PUSH2 0xE4F JUMPI DUP5 DUP10 ADD SLOAD DUP3 SSTORE PUSH1 0x1 DUP3 ADD SWAP2 POP PUSH1 0x1 DUP6 ADD SWAP5 POP PUSH1 0x20 DUP2 ADD SWAP1 POP PUSH2 0xE2A JUMP JUMPDEST DUP7 DUP4 LT ISZERO PUSH2 0xE6C JUMPI DUP5 DUP10 ADD SLOAD PUSH2 0xE68 PUSH1 0x1F DUP10 AND DUP3 PUSH2 0xC63 JUMP JUMPDEST DUP4 SSTORE POP JUMPDEST PUSH1 0x1 PUSH1 0x2 DUP9 MUL ADD DUP9 SSTORE POP POP POP JUMPDEST POP POP POP POP POP POP JUMPDEST JUMP JUMPDEST PUSH32 0x4E487B7100000000000000000000000000000000000000000000000000000000 PUSH1 0x0 MSTORE PUSH1 0x11 PUSH1 0x4 MSTORE PUSH1 0x24 PUSH1 0x0 REVERT JUMPDEST PUSH1 0x0 PUSH2 0xEBC DUP3 PUSH2 0x6D1 JUMP JUMPDEST SWAP2 POP PUSH1 0xFF DUP3 SUB PUSH2 0xECF JUMPI PUSH2 0xECE PUSH2 0xE82 JUMP JUMPDEST JUMPDEST PUSH1 0x1 DUP3 ADD SWAP1 POP SWAP2 SWAP1 POP JUMP INVALID LOG2 PUSH5 0x6970667358 0x22 SLT KECCAK256 0xD5 CREATE 0xBF JUMPI 0xB8 0x27 PC 0xEC SMOD MSTORE PUSH5 0x61F3732EC PUSH27 0xEE9E3D2E03DBEEB2C9AD0782A64BBE64736F6C6343000812003300 "
				},
				"gasEstimates": {
					"creation": {
						"codeDepositCost": "771200",
						"executionCost": "49388",
						"totalCost": "820588"
					},
					"external": {
						"addTask(string,uint8)": "infinite",
						"getAllTaskTxt()": "infinite",
						"getTaskTextbyId(uint8)": "infinite",
						"getTaskbyId(uint8)": "infinite"
					}
				},
				"methodIdentifiers": {
					"addTask(string,uint8)": "dbb9ae77",
					"getAllTaskTxt()": "02a70875",
					"getTaskTextbyId(uint8)": "8f1b6f60",
					"getTaskbyId(uint8)": "3f82a08e"
				}
			},
			"storageLayout": {
				"storage": [
					{
						"astId": 19,
						"contract": "contracts/TaskList.sol:TaskList",
						"label": "Tasks",
						"offset": 0,
						"slot": "0",
						"type": "t_mapping(t_uint8,t_struct(Task)14_storage)"
					},
					{
						"astId": 21,
						"contract": "contracts/TaskList.sol:TaskList",
						"label": "numTask",
						"offset": 0,
						"slot": "1",
						"type": "t_uint8"
					},
					{
						"astId": 23,
						"contract": "contracts/TaskList.sol:TaskList",
						"label": "owner",
						"offset": 1,
						"slot": "1",
						"type": "t_address"
					},
					{
						"astId": 26,
						"contract": "contracts/TaskList.sol:TaskList",
						"label": "textTask",
						"offset": 0,
						"slot": "2",
						"type": "t_array(t_string_storage)dyn_storage"
					}
				],
				"types": {
					"t_address": {
						"encoding": "inplace",
						"label": "address",
						"numberOfBytes": "20"
					},
					"t_array(t_string_storage)dyn_storage": {
						"base": "t_string_storage",
						"encoding": "dynamic_array",
						"label": "string[]",
						"numberOfBytes": "32"
					},
					"t_enum(difficulty)6": {
						"encoding": "inplace",
						"label": "enum TaskList.difficulty",
						"numberOfBytes": "1"
					},
					"t_mapping(t_uint8,t_struct(Task)14_storage)": {
						"encoding": "mapping",
						"key": "t_uint8",
						"label": "mapping(uint8 => struct TaskList.Task)",
						"numberOfBytes": "32",
						"value": "t_struct(Task)14_storage"
					},
					"t_string_storage": {
						"encoding": "bytes",
						"label": "string",
						"numberOfBytes": "32"
					},
					"t_struct(Task)14_storage": {
						"encoding": "inplace",
						"label": "struct TaskList.Task",
						"members": [
							{
								"astId": 8,
								"contract": "contracts/TaskList.sol:TaskList",
								"label": "nameTask",
								"offset": 0,
								"slot": "0",
								"type": "t_string_storage"
							},
							{
								"astId": 11,
								"contract": "contracts/TaskList.sol:TaskList",
								"label": "level",
								"offset": 0,
								"slot": "1",
								"type": "t_enum(difficulty)6"
							},
							{
								"astId": 13,
								"contract": "contracts/TaskList.sol:TaskList",
								"label": "id",
								"offset": 1,
								"slot": "1",
								"type": "t_uint8"
							}
						],
						"numberOfBytes": "64"
					},
					"t_uint8": {
						"encoding": "inplace",
						"label": "uint8",
						"numberOfBytes": "1"
					}
				}
			},
			"userdoc": {
				"kind": "user",
				"methods": {},
				"version": 1
			}
		}
	}
}